:0300000002049E59
:0C049E00787FE4F6D8FD75813A0204E591
:0C055300040D000000000108000112551A
:10000300D2AFD2AC759850538902758BFD758DFDB7
:08001300C2ABD28EE4F5872296
:10052A00753A22853A80120003E4FFFE7DA07C41E1
:10053A00AB10AA0FA90EA80D1201CC6007400575D1
:09054A003A5580E5753A8880E01D
:030023000202CF07
:1002CF00C0E0C0F0C083C082C0D075D000C000C0F5
:1002DF0001C002C003C004C005C006C0078512A03C
:1002EF00051220980302047EC298742B2508F8A6E5
:1002FF0099742B2508F8E6F599E5087009E52B6444
:10030F005560030204830508E508640B60030204CB
:10031F007EF508E52C24AE607C14700302041224D1
:10032F0002600302047EE52EAD2DFCE412023EE4D2
:10033F00FBFAF9784712012FE4FBFA798078411222
:10034F0000268F168E158D148C13E530AD2FFCE41F
:10035F0012023EE4FBFAF9784712012FE4FBFA7917
:10036F008078411200268F1A8E198D188C17E5325E
:10037F00AD31FCE412023EE4FBFAF9784712012F8B
:10038F00E4FBFA798078411200268F1E8E1D8D1C9A
:10039F008C1B02047EE52EAD2DFCE412023EE4FB25
:1003AF00FAF9784712012FE4FBFA79FA7844120030
:1003BF00268F228E218D208C1FE530AD2FFCE4126D
:1003CF00023EE4FBFAF9784712012FE4FBFA79FABF
:1003DF0078441200268F268E258D248C23E532AD8E
:1003EF0031FCE412023EE4FBFAF9784712012FE4E4
:1003FF00FBFA79FA78441200268F2A8E298D288CE1
:10040F0027806CE52EAD2DFCE412023EE4FBFAF9D9
:10041F00784712012FE4FBFA793478431200268FC4
:10042F000C8E0B8D0A8C09E530AD2FFCE412023EC9
:10043F00E4FBFAF9784712012FE4FBFA7934784399
:10044F001200268F398E388D378C36E532AD31FC60
:10045F00E412023EE4FBFAF9784712012FE4FBFAAB
:10046F00793478431200268F108E0F8D0E8C0D303D
:10047F009902C299D007D006D005D004D003D0027C
:0F048F00D001D000D0D0D082D083D0F0D0E032D6
:10002600EC4D6011E8497017ED33EC3304600DE4D4
:10003600FCFFFEFD22E933E8330470F80202AC123D
:10004600027758046009E4CC24815006285009023E
:1000560002B62840030202B3C0E0EB4A7044B980FE
:1000660006D0E0FB0202A2EF4E701CBD8008EBFF3B
:10007600EAFEE9FD80EBE98DF0A4FEE5F002010F52
:10008600E9CDF9EAFEEBFFEF89F0A4FCE5F0CE89B5
:10009600F0A42EFFE435F0CD89F0A42DFEE435F072
:1000A6008067EF4E7005BD80D780C3EF8BF0A4ACA0
:1000B600F0EE8BF0A42CFCE435F0F8EF8AF0A42CDB
:1000C600E5F038FCE433CB8DF0A42CFCE5F03BF8EE
:1000D600EE8AF0A42CFCE5F038F8E433CF89F0A4DE
:1000E6002CFCE5F038CF3400CE89F0A42FFFE5F0E4
:1000F6003EFEE433C98DF0A42EFEE5F039CD8AF03C
:10010600A42FFFE5F03EFEE43DFD33D0E0FB5007B3
:100116000BBB000F0202B6EC2CFCEF33FFEE33FEF6
:06012600ED33FD02028E24
:10012C000202B6EC5D046005E8590470030202ACEF
:10013C00120277580460F6EC4860F2EC7004FDFE95
:10014C00FF22C860DB2481C85009C39860025006A6
:10015C000202B39850CAF582E9294B4A7005AB826A
:10016C000202A275F0007C1A7880C3EF9BEE9AED28
:10017C0099400DC3EF9BFFEE9AFEED99FDE842F01E
:10018C00DC23ACF0D0E0FFD0E0FED0E0FDAB822071
:10019C00E7101BEB60BAEC2CFCEF33FFEE33FEEDFB
:1001AC0033FD02028EE803F830E705C0F075F0006D
:1001BC00EF2FFFEE33FEED33FD40B830E7C280AADF
:1001CC0074F8CC6480CCC86480C8F582046043C3E6
:1001DC00EB9FF5F0EA9E42F0E99D42F0E89C45F079
:1001EC0060305018E5825FFFE582F42B5582FB509E
:1001FC00210ABA001D09B90019088016E5825BFBBB
:10020C00E582F42F5582FF50090EBE00050DBD008E
:10021C00010CC3EB9FF5F0EA9E42F0E99D42F0E839
:0D022C009C45F06007CC4820E701B3EC22B0
:1002390075F020800E75F010800575F0087D007E40
:10024900007F003392D530D5031202C1EC33401040
:10025900EF33FFEE33FEED33FDEC33FCD5F0ED2249
:0E026900E5F0247EA2D513CC92E7CDCEFF2285
:10027700E9D2E7C933E833F892D5EDD2E7CD33ECCD
:0702870033FC5002B2D52246
:10028E00EC30E7100FBF000C0EBE00080DBD0004D1
:10029E000BEB6014A2D5EB13FCED92E7FD2274FF7D
:1002AE00FCFDFEFF22E480F8A2D574FF13FC7D80D6
:0302BE00E480EFEA
:1004AA0002052AE493A3F8E493A34003F68001F239
:1004BA0008DFF48029E493A3F85407240CC8C33353
:1004CA00C4540F4420C8834004F456800146F6DF22
:1004DA00E4800B0102040810204080900553E47E5A
:1004EA00019360BCA3FF543F30E509541FFEE49317
:1004FA00A360010ECF54C025E060A840B8E493A3DE
:10050A00FAE493A3F8E493A3C8C582C8CAC583CA08
:10051A00F0A3C8C582C8CAC583CADFE9DEE780BEC0
:01055F00009B
:0E02C100C3E49FFFE49EFEE49DFDE49CFC224E
:00000001FF
