:0300000002046D8A
:0C046D00787FE4F6D8FD7581380204B4F5
:06000300040D00000000E6
:030023000204F9DB
:1004F900C0E0C0D075D000C000742A2508F8A699BC
:10050900E5087005E52AB4550D0508E508B40B069C
:0D051900750800751101D000D0D0D0E0327F
:1002CF00E4F580D29C758780D29FC29ED2AFD2AC0C
:1002DF00E511700302044EE4F511E52A645560033D
:1002EF0002044EE52B24AE607C1470030203E2245B
:1002FF0002600302044EE52DAD2CFCE412023EE435
:10030F00FBFAF9784712012FE4FBFA798078411252
:10031F0000268F158E148D138C12E52FAD2EFCE455
:10032F0012023EE4FBFAF9784712012FE4FBFA7947
:10033F008078411200268F198E188D178C16E53193
:10034F00AD30FCE412023EE4FBFAF9784712012FBC
:10035F00E4FBFA798078411200268F1D8E1C8D1BCD
:10036F008C1A02044EE52DAD2CFCE412023EE4FB88
:10037F00FAF9784712012FE4FBFA79FA7844120060
:10038F00268F218E208D1F8C1EE52FAD2EFCE412A3
:10039F00023EE4FBFAF9784712012FE4FBFA79FAEF
:1003AF0078441200268F258E248D238C22E531ADC3
:1003BF0030FCE412023EE4FBFAF9784712012FE415
:1003CF00FBFA79FA78441200268F298E288D278C14
:1003DF0026806CE52DAD2CFCE412023EE4FBFAF90D
:1003EF00784712012FE4FBFA793478431200268FF5
:1003FF000C8E0B8D0A8C09E52FAD2EFCE412023EFC
:10040F00E4FBFAF9784712012FE4FBFA79347843C9
:10041F001200268F388E378D368C35E531AD30FC96
:10042F00E412023EE4FBFAF9784712012FE4FBFADB
:10043F00793478431200268F108E0F8D0E8C0DE4B9
:10044F00FFFE7D207C41AB10AA0FA90EA80D120153
:0E045F00CC600250030202DF7580F00202DF63
:10002600EC4D6011E8497017ED33EC3304600DE4D4
:10003600FCFFFEFD22E933E8330470F80202AC123D
:10004600027758046009E4CC24815006285009023E
:1000560002B62840030202B3C0E0EB4A7044B980FE
:1000660006D0E0FB0202A2EF4E701CBD8008EBFF3B
:10007600EAFEE9FD80EBE98DF0A4FEE5F002010F52
:10008600E9CDF9EAFEEBFFEF89F0A4FCE5F0CE89B5
:10009600F0A42EFFE435F0CD89F0A42DFEE435F072
:1000A6008067EF4E7005BD80D780C3EF8BF0A4ACA0
:1000B600F0EE8BF0A42CFCE435F0F8EF8AF0A42CDB
:1000C600E5F038FCE433CB8DF0A42CFCE5F03BF8EE
:1000D600EE8AF0A42CFCE5F038F8E433CF89F0A4DE
:1000E6002CFCE5F038CF3400CE89F0A42FFFE5F0E4
:1000F6003EFEE433C98DF0A42EFEE5F039CD8AF03C
:10010600A42FFFE5F03EFEE43DFD33D0E0FB5007B3
:100116000BBB000F0202B6EC2CFCEF33FFEE33FEF6
:06012600ED33FD02028E24
:10012C000202B6EC5D046005E8590470030202ACEF
:10013C00120277580460F6EC4860F2EC7004FDFE95
:10014C00FF22C860DB2481C85009C39860025006A6
:10015C000202B39850CAF582E9294B4A7005AB826A
:10016C000202A275F0007C1A7880C3EF9BEE9AED28
:10017C0099400DC3EF9BFFEE9AFEED99FDE842F01E
:10018C00DC23ACF0D0E0FFD0E0FED0E0FDAB822071
:10019C00E7101BEB60BAEC2CFCEF33FFEE33FEEDFB
:1001AC0033FD02028EE803F830E705C0F075F0006D
:1001BC00EF2FFFEE33FEED33FD40B830E7C280AADF
:1001CC0074F8CC6480CCC86480C8F582046043C3E6
:1001DC00EB9FF5F0EA9E42F0E99D42F0E89C45F079
:1001EC0060305018E5825FFFE582F42B5582FB509E
:1001FC00210ABA001D09B90019088016E5825BFBBB
:10020C00E582F42F5582FF50090EBE00050DBD008E
:10021C00010CC3EB9FF5F0EA9E42F0E99D42F0E839
:0D022C009C45F06007CC4820E701B3EC22B0
:1002390075F020800E75F010800575F0087D007E40
:10024900007F003392D530D5031202C1EC33401040
:10025900EF33FFEE33FEED33FDEC33FCD5F0ED2249
:0E026900E5F0247EA2D513CC92E7CDCEFF2285
:10027700E9D2E7C933E833F892D5EDD2E7CD33ECCD
:0702870033FC5002B2D52246
:10028E00EC30E7100FBF000C0EBE00080DBD0004D1
:10029E000BEB6014A2D5EB13FCED92E7FD2274FF7D
:1002AE00FCFDFEFF22E480F8A2D574FF13FC7D80D6
:0302BE00E480EFEA
:100479000202CFE493A3F8E493A34003F68001F2C8
:1004890008DFF48029E493A3F85407240CC8C33384
:10049900C4540F4420C8834004F456800146F6DF53
:1004A900E4800B0102040810204080900003E47EE0
:1004B900019360BCA3FF543F30E509541FFEE49348
:1004C900A360010ECF54C025E060A840B8E493A30F
:1004D900FAE493A3F8E493A3C8C582C8CAC583CA3A
:1004E900F0A3C8C582C8CAC583CADFE9DEE780BEF2
:0100090000F6
:0E02C100C3E49FFFE49EFEE49DFDE49CFC224E
:00000001FF
