:0300000002047285
:0C047200787FE4F6D8FD7581350204B9EE
:10055C000001000200040008001000200040008090
:08056C0006120000007800F007
:1002B3008E208F218C228D238B24E51F4508FEE59C
:1002C30009FFEE3395E0FDFCE4FB7A80F9F81204B4
:1002D300FEE47BB4FAF9F81201418E0A8F0BE4F5C0
:1002E3001CF51DAE1CAF1D7C017D681200F91C7D41
:1002F3000312010BE50B2FFFE50A3EFEE51D25E08A
:100303002412F8A60608A607E51D25E02412F8E640
:10031300FE08E6FFC3944CEE6480947F400AEF949A
:10032300B4EE648094804013E51D25E02412F808A0
:10033300749826F61874FE36F680CD051DE51D70FB
:1003430002051C6403451C709AE5256401707AC399
:10035300E5139521E5206480F8E512648098401543
:10036300E5139523E5226480F8E51264809850052F
:100373008524808003E4F580C3E5159521E5206499
:1003830080F8E5146480984015E5159523E522640B
:1003930080F8E51464809850058524908003E4F583
:1003A30090C3E5179521E5206480F8E516648098ED
:1003B3004014E5179523E5226480F8E516648098D8
:0903C30050048524A02202046EFE
:1003CC0078267C007D007BFF7A05795C7E007F10AF
:1003DC001200D3C3E5139521E5206480F8E512647F
:1003EC008098401DE5139523E5226480F8E512649E
:1003FC008098500DE52425E02426F808E6F5808049
:10040C0003E4F580C3E5159521E5206480F8E51437
:10041C00648098401DE5159523E5226480F8E51469
:10042C00648098500DE52425E02426F808E6F59024
:10043C008003E4F590C3E5179521E5206480F8E589
:10044C0016648098401CE5179523E5226480F8E536
:10045C0016648098500CE52425E02426F808E6F56F
:05046C00A022E4F5A050
:010471002268
:10054200E4F51EF51FF508F509E4F5257B037D1E8C
:0A055200FC7FE27EFF1202B380EF8F
:10047E00020542E493A3F8E493A34003F68001F24D
:10048E0008DFF48029E493A3F85407240CC8C3337F
:10049E00C4540F4420C8834004F456800146F6DF4E
:1004AE00E4800B010204081020408090056CE47E6D
:1004BE00019360BCA3FF543F30E509541FFEE49343
:1004CE00A360010ECF54C025E060A840B8E493A30A
:1004DE00FAE493A3F8E493A3C8C582C8CAC583CA35
:1004EE00F0A3C8C582C8CAC583CADFE9DEE780BEED
:010574000086
:10000300E709F608DFFA8046E709F208DFFA803EDF
:1000130088828C83E709F0A3DFFA8032E309F608CC
:10002300DFFA8078E309F208DFFA807088828C8334
:10003300E309F0A3DFFA806489828A83E0A3F608E8
:10004300DFFA805889828A83E0A3F208DFFA804CC2
:1000530080D280FA80C680D4806980F28033801099
:1000630080A680EA809A80A880DA80E280CA803302
:1000730089828A83ECFAE493A3C8C582C8CCC5837A
:10008300CCF0A3C8C582C8CCC583CCDFE9DEE7804A
:100093000D89828A83E493A3F608DFF9ECFAA9F0C9
:1000A300EDFB2289828A83ECFAE0A3C8C582C8CC1F
:1000B300C583CCF0A3C8C582C8CCC583CCDFEADE38
:1000C300E880DB89828A83E493A3F208DFF980CC9A
:1000D30088F0EF60010E4E60C388F0ED2402B40493
:1000E3000050B9F582EB2402B4040050AF2323453A
:0600F3008223900053730C
:1000F900EF8DF0A4A8F0CF8CF0A428CE8DF0A42E1B
:02010900FE22D4
:10010B00C2D5EC30E709B2D5E4C39DFDE49CFCEE0F
:10011B0030E715B2D5E4C39FFFE49EFE120190C3F6
:10012B00E49DFDE49CFC800312019030D507C3E4F1
:06013B009FFFE49EFE227E
:10014100E88FF0A4CC8BF0A42CFCE98EF0A42CFC5D
:100151008AF0EDA42CFCEA8EF0A4CDA8F08BF0A4DB
:100161002DCC3825F0FDE98FF0A42CCD35F0FCEB3A
:100171008EF0A4FEA9F0EB8FF0A4CFC5F02ECD39FF
:0F018100FEE43CFCEAA42DCE35F0FDE43CFC226C
:1004FE00C2D5E830E70FB2D5E4C39BFBE49AFAE429
:10050E0099F9E498F8EC30E717B2D51205341202D7
:10051E0021E4C39BFBE49AFAE499F9E498F880038A
:10052E0012022130D50DE4C39FFFE49EFEE49DFD33
:04053E00E49CFC221B
:10019000BC000BBE0029EF8DF084FFADF022E4CC53
:1001A000F875F008EF2FFFEE33FEEC33FCEE9DEC1C
:1001B000984005FCEE9DFE0FD5F0E9E4CEFD22ED62
:1001C000F8F5F0EE8420D21CFEADF075F008EF2FAC
:1001D000FFED33FD4007985006D5F0F222C398FD9D
:0501E0000FD5F0EA223A
:1001E50075F008758200EF2FFFEE33FECD33CDCCD1
:1001F50033CCC58233C5829BED9AEC99E582984054
:100205000CF582EE9BFEED9AFDEC99FC0FD5F0D630
:10021500E4CEFBE4CDFAE4CCF9A88222B800C1B95A
:100225000059BA002DEC8BF084CFCECDFCE5F0CB98
:10023500F97818EF2FFFEE33FEED33FDEC33FCEBD1
:1002450033FB10D703994004EB99FB0FD8E5E4F98C
:10025500FA227818EF2FFFEE33FEED33FDEC33FC79
:10026500C933C910D7059BE99A4007EC9BFCE99A6D
:10027500F90FD8E0E4C9FAE4CCFB2275F010EF2FB2
:10028500FFEE33FEED33FDCC33CCC833C810D707B2
:100295009BEC9AE899400AED9BFDEC9AFCE899F8ED
:0E02A5000FD5F0DAE4CDFBE4CCFAE4C8F92280
:00000001FF
