:0300000002087C77
:0C087C00787FE4F6D8FD75815E0208C3A9
:0C09FE00FFFFFFC3BD7E7EBDC3FFFFFFF7
:1009BA000121000146000222000002240000022652
:1009CA000000022E0000022C000004280000000093
:0C09DA00C102044D0000000002570000A4
:10000300D3EF9400EE64809480400F7D0D7C21DC5F
:0A001300FEDDFAEF1F70E91E80E623
:01001D0022C0
:1009080078087C007D007BFF7A0979FE7E007F0CE9
:100918001204D6E4F514F5151209E7E4FFFE7DF09C
:100928007C41AB2BAA2AA929A8281202C4604340FB
:1009380041E4FFFE7DB47C42AB2BAA2AA929A82852
:100948001202C4502DC3E515940CE51464809480FC
:10095800501974082515F8E6F5800515E515700297
:1009680005147F057E0012000380B0E4F514F51528
:0709780080A97580FF80A437
:1009E700D2AFD2AC75985075CAFD75CBFF75CCFDEB
:0709F70075CDFF75C8342225
:0300230002052AA9
:10052A00C0E0C0F0C083C082C0D075D000C000C097
:10053A0001C002C003C004C005C006C0072098035A
:10054A0002068AC298AF99E52125E02430F87600A0
:10055A0008A607E521700BE53164554530600302B2
:10056A00068F0521E521640B600302068AF521E561
:10057A0032600302068AE53324AE700302066C0475
:10058A00600302068AE5374534F547E535F54885BF
:10059A0024228525238526248527258547268548DF
:1005AA0027C3E5239525E5246480F8E5226480982D
:1005BA004013D3E5259527E5266480F8E524648071
:1005CA00985002C202D3E5239525E5246480F8E514
:1005DA00226480985028C3E5259527E5266480F88B
:1005EA00E5246480984017D202D3E55C9499E55BD0
:1005FA00648094994008052DE52D7002052CAC47BE
:10060A00AD48EC300226120336E4FBFAF9784512BB
:10061A00022712097F7B337A337965784212011EE9
:10062A00E4FBFA79B4784212002D802C120336E4E6
:10063A00FBFAF9784512022712097F7B337A33795C
:10064A0065784212011EA804A905AA06AB07E4FFB1
:10065A00FE7D877C431200298F2B8E2A8D298C28B8
:10066A00801EE5374534F559E535F55AE53B4538F9
:10067A00F55BE539F55CE53F453CF55DE53DF55E45
:10068A00309902C299D007D006D005D004D003D041
:10069A0002D001D000D0D0D082D083D0F0D0E032C6
:100026000203A4E86480F8E933E83360110460F061
:10003600ED33EC337009E8FCE9FDEAFEEBFF220440
:1000460060DED3EB9FEA9EE99DE8C2E78CF0C2F73B
:1000560095F0400CE8CCF8E9CDF9EACEFAEBCFFB07
:1000660012036F85D0F05804700320D5B3E80470EE
:10007600075002B2D50203AE92D5EC0460F7E4CC89
:10008600C0E0C398F8603B94186008400DD0E0FBD0
:10009600020386E4FBFAC9FC8028E830E406E4C9DA
:1000A600FBE4CAFCE830E305E4C9CACBFCE8540724
:1000B6006010F8C3E913F9EA13FAEB13FBEC13FC2F
:1000C600D8F130F52FC3E49CFCEF9BFFEE9AFEEDD2
:1000D60099FDD0E0FBEF4E4D4C701222DB0302037C
:1000E600ABEC2CFCEF33FFEE33FEED33FDED30E7EA
:1000F600EB020386EF2BFFEE3AFEED39FDD0E0FB77
:1001060050130BBB00030203AEED13FDEE13FEEF1F
:0801160013FFEC13FC02038649
:10011E00EC4D6011E8497017ED33EC3304600DE4DB
:10012E00FCFFFEFD22E933E8330470F80203A4124B
:10013E00036F58046009E4CC24815006285009024C
:10014E0003AE2840030203ABC0E0EB4A7044B98013
:10015E0006D0E0FB02039AEF4E701CBD8008EBFF49
:10016E00EAFEE9FD80EBE98DF0A4FEE5F002020760
:10017E00E9CDF9EAFEEBFFEF89F0A4FCE5F0CE89BC
:10018E00F0A42EFFE435F0CD89F0A42DFEE435F079
:10019E008067EF4E7005BD80D780C3EF8BF0A4ACA7
:1001AE00F0EE8BF0A42CFCE435F0F8EF8AF0A42CE2
:1001BE00E5F038FCE433CB8DF0A42CFCE5F03BF8F5
:1001CE00EE8AF0A42CFCE5F038F8E433CF89F0A4E5
:1001DE002CFCE5F038CF3400CE89F0A42FFFE5F0EB
:1001EE003EFEE433C98DF0A42EFEE5F039CD8AF043
:1001FE00A42FFFE5F03EFEE43DFD33D0E0FB5007BB
:10020E000BBB000F0203AEEC2CFCEF33FFEE33FE04
:06021E00ED33FD02038632
:100224000203AEEC5D046005E8590470030203A404
:1002340012036F580460F6EC4860F2EC7004FDFEA3
:10024400FF22C860DB2481C85009C39860025006AD
:100254000203AB9850CAF582E9294B4A7005AB8278
:1002640002039A75F0007C1A7880C3EF9BEE9AED36
:1002740099400DC3EF9BFFEE9AFEED99FDE842F025
:10028400DC23ACF0D0E0FFD0E0FED0E0FDAB822078
:10029400E7101BEB60BAEC2CFCEF33FFEE33FEED02
:1002A40033FD020386E803F830E705C0F075F0007B
:1002B400EF2FFFEE33FEED33FD40B830E7C280AAE6
:1002C40074F8CC6480CCC86480C8F582046043C3ED
:1002D400EB9FF5F0EA9E42F0E99D42F0E89C45F080
:1002E40060305018E5825FFFE582F42B5582FB50A5
:1002F400210ABA001D09B90019088016E5825BFBC2
:10030400E582F42F5582FF50090EBE00050DBD0095
:10031400010CC3EB9FF5F0EA9E42F0E99D42F0E840
:0D0324009C45F06007CC4820E701B3EC22B7
:1003310075F020800E75F010800575F0087D007E47
:10034100007F003392D530D5031204FCEC3340100A
:10035100EF33FFEE33FEED33FDEC33FCD5F0ED2250
:0E036100E5F0247EA2D513CC92E7CDCEFF228C
:10097F00ECC0E0F8EDC0E0F9EEC0E0FAEFC0E0FB4C
:10098F0012011EEC6480FC7B007A007980783F12A4
:10099F00002D1207D6D0E0CFFBD0E0CEFAD0E0CDBD
:0B09AF00F9D0E0CCF81202270206CAC3
:10036F00E9D2E7C933E833F892D5EDD2E7CD33ECD4
:07037F0033FC5002B2D5224D
:10038600EC30E7100FBF000C0EBE00080DBD0004D8
:100396000BEB6014A2D5EB13FCED92E7FD2274FF84
:1003A600FCFDFEFF22E480F8A2D574FF13FC7D80DD
:0303B600E480EFF1
:1007D2000203A422EDA2E7D2E7F9EC3340F260F380
:1007E200B4FF08ED547F70E80203AEF82481C2E042
:1007F200C0E0F40428FAC313FCED92E7FD8C168DD9
:10080200178E188F19EEA2E7E9BA7F02C3133400DC
:100812009400FA75F091A4E5F013F494FE8AF0A422
:1008220033E5F033248CD313FDE492E7FE7F007CA2
:100832003F758302ECC0E0F8EDC0E0F9EEC0E0FAEB
:10084200EFC0E0FBAC16AD17AE18AF19120227D0FD
:10085200E0FBD0E0FAD0E0F9D0E0F812002DED6430
:1008620080FD30E7011CD583CBED33CC33F8D0E0EB
:0A087200A2E71328C313CC13FD22E4
:1006AA00BE1249253E4CCCCDBEAAAAAB3F80000063
:1006BA003E7ADBB03EED63383F24BC7D3F490FDB19
:1006CA00ED33ECC2E7CC339200B4FF13ED547F60F4
:1006DA00030203A47FDB7E0F7DC97C3F0207C5C2EC
:1006EA0001C3947F401E7007EDD2E794904015EF46
:1006FA00FBEEFAEDF9ECF87F007E007D807C3F127C
:10070A000227D201ED33EC33248430E705E4C0E05C
:10071A00806D04FAEDD2E754F0C333DAFD5407349E
:10072A00002323C0E0CCC0E0F8EDC0E0F9EEC0E061
:10073A00FAEFC0E0FBE412033BEC24FEFC8C168DBE
:10074A00178E188F1912011E7B007A007980783F64
:10075A0012002DECC516B2E7FCEDC517FDEEC51863
:10076A00FEEFC519FFD0E0FBD0E0FAD0E0F9D0E007
:10077A00F812002DA816A917AA18AB191202278C6D
:10078A00168D178E188F199006AA74031203B9A82A
:10079A0016A917AA18AB1912011ED0E0600F24B6C9
:1007AA00F582E43406F58312051A12002D30010B86
:1007BA007BDB7A0F79C978BF12002DED33EC3360F9
:0807CA0006ECA20092E7FC22FC
:1003B900C0E0EFFBEEFAEDF9ECF812011ED0E0F522
:1003C900F0EFFBEEFAEDF9ECF812050AA3A3A3A3EB
:1003D900E8C0E0E9C0E0EAC0E0EBC0E0C0F012012B
:1003E9001E12051AA3A3A3A312002DD0F0D0E0FB7F
:0D03F900D0E0FAD0E0F9D0E0F8D5F0D42241
:10088800020908E493A3F8E493A34003F68001F275
:1008980008DFF48029E493A3F85407240CC8C33371
:1008A800C4540F4420C8834004F456800146F6DF40
:1008B800E4800B01020408102040809009BAE47E0D
:1008C800019360BCA3FF543F30E509541FFEE49335
:1008D800A360010ECF54C025E060A840B8E493A3FC
:1008E800FAE493A3F8E493A3C8C582C8CAC583CA27
:1008F800F0A3C8C582C8CAC583CADFE9DEE780BEDF
:0109E6000010
:10040600E709F608DFFA8046E709F208DFFA803ED8
:1004160088828C83E709F0A3DFFA8032E309F608C5
:10042600DFFA8078E309F208DFFA807088828C832D
:10043600E309F0A3DFFA806489828A83E0A3F608E1
:10044600DFFA805889828A83E0A3F208DFFA804CBB
:1004560080D280FA80C680D4806980F28033801092
:1004660080A680EA809A80A880DA80E280CA8033FB
:1004760089828A83ECFAE493A3C8C582C8CCC58373
:10048600CCF0A3C8C582C8CCC583CCDFE9DEE78043
:100496000D89828A83E493A3F608DFF9ECFAA9F0C2
:1004A600EDFB2289828A83ECFAE0A3C8C582C8CC18
:1004B600C583CCF0A3C8C582C8CCC583CCDFEADE31
:1004C600E880DB89828A83E493A3F208DFF980CC93
:1004D60088F0EF60010E4E60C388F0ED2402B4048C
:1004E6000050B9F582EB2402B4040050AF23234533
:0604F600822390045673FE
:0E04FC00C3E49FFFE49EFEE49DFDE49CFC2211
:10050A00E493FC740193FD740293FE740393FF2237
:10051A00E493F8740193F9740293FA740393FB2237
:00000001FF
