:030000000208FEF5
:0C08FE00787FE4F6D8FD758160020945A2
:10098A00C3BDBDBDC3FFFFFFFFFFFFFFFC7E007EAF
:10099A00FCFFFFFFFFFFFFFFF1EEEE6E007EFFFFA1
:1009AA00FFFFFFFFC3BDBDBDC3FFFFFFFFFFFFFF8B
:1009BA00F1EEEE6E007EFFFFFFFFFFFFFC7E007E82
:0809CA00FCFFFFFFFFFFFFFF30
:100A0D0001210001480002220000022400000226FC
:100A1D000000022E0000022C00000428000000003F
:0C0A2D00C102044F00000000025900004C
:100A3A00D3EF9400EE64809480400B7D0ADDFEEFD4
:060A4A001F70ED1E80EAA2
:010A50002283
:10000300D3EF9400EE64809480400F7D0D7C21DC5F
:0A001300FEDDFAEF1F70E91E80E623
:01001D0022C0
:1005B400E4F508F509F50AF50BF50CF50D120A51E9
:1005C400E4FFFEFDFCAB2BAA2AA929A8281202C429
:1005D40060474045E4FFFE7DF07C42AB2BAA2AA98C
:1005E40029A8281202C45031E4F50AF50BF50CF5DC
:1005F4000DC3E509940CE5086480948050C2748AA4
:100604002509F58274093508F583E493F580050915
:10061400E50970020508020716E4FFFE7DF07C423E
:10062400AB2BAA2AA929A8281202C460694067E44E
:10063400FFFE7D707C43AB2BAA2AA929A8281202AD
:10064400C45053E4F508F509F50CF50DC3E50B9416
:100654000CE50A6480948040030205C4748A250B67
:10066400F5827409350AF583E493F59074A2250B99
:10067400F5827409350AF583E493F5A07496250B85
:10068400F5827409350AF583E493F580050BE50BCF
:100694007002050A807CE4FFFE7D617C43AB2BAADB
:1006A4002AA929A8281202C4607240707F007E80A3
:1006B4007DAC7C43AB2BAA2AA929A8281202C450DA
:1006C4005BE4F508F509F50AF50BC3E50D940CE5B3
:1006D4000C6480948040030205C4748A250DF5825D
:1006E4007409350CF583E493F5A07496250DF58211
:1006F4007409350CF583E493F59074A2250DF58205
:100704007409350CF583E493F580050DE50D70024D
:10071400050C7F057E00120A3A0205C47580FF7538
:0807240090FF75A0FF0205C45F
:100A5100D2AFD2AC75985075CAFD75CBFF75CCFD80
:070A610075CDFF75C83422BA
:03002300020434A0
:10043400C0E0C0F0C083C082C0D075D000C000C08E
:1004440001C002C003C004C005C006C00720980351
:10045400020594C298AF99E52125E02430F876008E
:1004640008A607E521700BE53164554530600302A9
:1004740005990521E521640B6003020594F521E546
:10048400326003020594E53324AE7003020576045A
:100494006003020594E5374534F549E535F54A85A9
:1004A4002422852523852624852725854926854AD2
:1004B40027C3E5239525E5246480F8E52264809824
:1004C4004013D3E5259527E5266480F8E524648068
:1004D400985002C202D3E5239525E5246480F8E50B
:1004E400226480985028C3E5259527E5266480F882
:1004F400E5246480984017D202D3E55E9499E55DC3
:10050400648094994008052DE52D7002052CAC49B2
:10051400AD4AEC300226120336E4FBFAF9784512B0
:1005240002271209D27B337A337965784212011E8D
:10053400E4FBFA79B4784212002D802C120336E4DD
:10054400FBFAF978451202271209D27B337A337900
:1005540065784212011EA804A905AA06AB07E4FFA8
:10056400FE7D877C431200298F2B8E2A8D298C28AF
:10057400801EE5374534F55BE535F55CE53B4538EC
:10058400F55DE539F55EE53F453CF55FE53DF56034
:10059400309902C299D007D006D005D004D003D038
:1005A40002D001D000D0D0D082D083D0F0D0E032BD
:100026000203A4E86480F8E933E83360110460F061
:10003600ED33EC337009E8FCE9FDEAFEEBFF220440
:1000460060DED3EB9FEA9EE99DE8C2E78CF0C2F73B
:1000560095F0400CE8CCF8E9CDF9EACEFAEBCFFB07
:1000660012036F85D0F05804700320D5B3E80470EE
:10007600075002B2D50203AE92D5EC0460F7E4CC89
:10008600C0E0C398F8603B94186008400DD0E0FBD0
:10009600020386E4FBFAC9FC8028E830E406E4C9DA
:1000A600FBE4CAFCE830E305E4C9CACBFCE8540724
:1000B6006010F8C3E913F9EA13FAEB13FBEC13FC2F
:1000C600D8F130F52FC3E49CFCEF9BFFEE9AFEEDD2
:1000D60099FDD0E0FBEF4E4D4C701222DB0302037C
:1000E600ABEC2CFCEF33FFEE33FEED33FDED30E7EA
:1000F600EB020386EF2BFFEE3AFEED39FDD0E0FB77
:1001060050130BBB00030203AEED13FDEE13FEEF1F
:0801160013FFEC13FC02038649
:10011E00EC4D6011E8497017ED33EC3304600DE4DB
:10012E00FCFFFEFD22E933E8330470F80203A4124B
:10013E00036F58046009E4CC24815006285009024C
:10014E0003AE2840030203ABC0E0EB4A7044B98013
:10015E0006D0E0FB02039AEF4E701CBD8008EBFF49
:10016E00EAFEE9FD80EBE98DF0A4FEE5F002020760
:10017E00E9CDF9EAFEEBFFEF89F0A4FCE5F0CE89BC
:10018E00F0A42EFFE435F0CD89F0A42DFEE435F079
:10019E008067EF4E7005BD80D780C3EF8BF0A4ACA7
:1001AE00F0EE8BF0A42CFCE435F0F8EF8AF0A42CE2
:1001BE00E5F038FCE433CB8DF0A42CFCE5F03BF8F5
:1001CE00EE8AF0A42CFCE5F038F8E433CF89F0A4E5
:1001DE002CFCE5F038CF3400CE89F0A42FFFE5F0EB
:1001EE003EFEE433C98DF0A42EFEE5F039CD8AF043
:1001FE00A42FFFE5F03EFEE43DFD33D0E0FB5007BB
:10020E000BBB000F0203AEEC2CFCEF33FFEE33FE04
:06021E00ED33FD02038632
:100224000203AEEC5D046005E8590470030203A404
:1002340012036F580460F6EC4860F2EC7004FDFEA3
:10024400FF22C860DB2481C85009C39860025006AD
:100254000203AB9850CAF582E9294B4A7005AB8278
:1002640002039A75F0007C1A7880C3EF9BEE9AED36
:1002740099400DC3EF9BFFEE9AFEED99FDE842F025
:10028400DC23ACF0D0E0FFD0E0FED0E0FDAB822078
:10029400E7101BEB60BAEC2CFCEF33FFEE33FEED02
:1002A40033FD020386E803F830E705C0F075F0007B
:1002B400EF2FFFEE33FEED33FD40B830E7C280AAE6
:1002C40074F8CC6480CCC86480C8F582046043C3ED
:1002D400EB9FF5F0EA9E42F0E99D42F0E89C45F080
:1002E40060305018E5825FFFE582F42B5582FB50A5
:1002F400210ABA001D09B90019088016E5825BFBC2
:10030400E582F42F5582FF50090EBE00050DBD0095
:10031400010CC3EB9FF5F0EA9E42F0E99D42F0E840
:0D0324009C45F06007CC4820E701B3EC22B7
:1003310075F020800E75F010800575F0087D007E47
:10034100007F003392D530D503120406EC33401000
:10035100EF33FFEE33FEED33FDEC33FCD5F0ED2250
:0E036100E5F0247EA2D513CC92E7CDCEFF228C
:1009D200ECC0E0F8EDC0E0F9EEC0E0FAEFC0E0FBF9
:1009E20012011EEC6480FC7B007A007980783F1251
:1009F200002D120858D0E0CFFBD0E0CEFAD0E0CDE7
:0B0A0200F9D0E0CCF812022702074CEC
:10036F00E9D2E7C933E833F892D5EDD2E7CD33ECD4
:07037F0033FC5002B2D5224D
:10038600EC30E7100FBF000C0EBE00080DBD0004D8
:100396000BEB6014A2D5EB13FCED92E7FD2274FF84
:1003A600FCFDFEFF22E480F8A2D574FF13FC7D80DD
:0303B600E480EFF1
:100854000203A422EDA2E7D2E7F9EC3340F260F3FD
:10086400B4FF08ED547F70E80203AEF82481C2E0BF
:10087400C0E0F40428FAC313FCED92E7FD8C0E8D5E
:100884000F8E108F11EEA2E7E9BA7F02C313340072
:100894009400FA75F091A4E5F013F494FE8AF0A4A0
:1008A40033E5F033248CD313FDE492E7FE7F007C20
:1008B4003F758302ECC0E0F8EDC0E0F9EEC0E0FA69
:1008C400EFC0E0FBAC0EAD0FAE10AF11120227D09B
:1008D400E0FBD0E0FAD0E0F9D0E0F812002DED64AE
:1008E40080FD30E7011CD583CBED33CC33F8D0E069
:0A08F400A2E71328C313CC13FD2262
:10072C00BE1249253E4CCCCDBEAAAAAB3F800000E0
:10073C003E7ADBB03EED63383F24BC7D3F490FDB96
:10074C00ED33ECC2E7CC339200B4FF13ED547F6071
:10075C00030203A47FDB7E0F7DC97C3F020847C2E6
:10076C0001C3947F401E7007EDD2E794904015EFC3
:10077C00FBEEFAEDF9ECF87F007E007D807C3F12F9
:10078C000227D201ED33EC33248430E705E4C0E0DA
:10079C00806D04FAEDD2E754F0C333DAFD5407341C
:1007AC00002323C0E0CCC0E0F8EDC0E0F9EEC0E0DF
:1007BC00FAEFC0E0FBE412033BEC24FEFC8C0E8D44
:1007CC000F8E108F1112011E7B007A007980783FFA
:1007DC0012002DECC50EB2E7FCEDC50FFDEEC510F9
:1007EC00FEEFC511FFD0E0FBD0E0FAD0E0F9D0E08D
:1007FC00F812002DA80EA90FAA10AB111202278C0B
:10080C000E8D0F8E108F1190072C74031203B9A844
:10081C000EA90FAA10AB1112011ED0E0600F2438E4
:10082C00F582E43407F58312042412002D30010BF9
:10083C007BDB7A0F79C978BF12002DED33EC336076
:08084C0006ECA20092E7FC2279
:1003B900C0E0EFFBEEFAEDF9ECF812011ED0E0F522
:1003C900F0EFFBEEFAEDF9ECF8120414A3A3A3A3E2
:1003D900E8C0E0E9C0E0EAC0E0EBC0E0C0F012012B
:1003E9001E120424A3A3A3A312002DD0F0D0E0FB76
:0D03F900D0E0FAD0E0F9D0E0F8D5F0D42241
:10090A000205B4E493A3F8E493A34003F68001F24A
:10091A0008DFF48029E493A3F85407240CC8C333EE
:10092A00C4540F4420C8834004F456800146F6DFBD
:10093A00E4800B0102040810204080900A0DE47E36
:10094A00019360BCA3FF543F30E509541FFEE493B2
:10095A00A360010ECF54C025E060A840B8E493A379
:10096A00FAE493A3F8E493A3C8C582C8CAC583CAA4
:10097A00F0A3C8C582C8CAC583CADFE9DEE780BE5C
:010A390000BC
:0E040600C3E49FFFE49EFEE49DFDE49CFC2207
:10041400E493FC740193FD740293FE740393FF222E
:10042400E493F8740193F9740293FA740393FB222E
:00000001FF
