:03000000020F7F6D
:0C0F7F00787FE4F6D8FD758158020FC69B
:10000300D3EF9400EE64809480400F7D0D7C21DC5F
:0A001300FEDDFAEF1F70E91E80E623
:01001D0022C0
:1010BF00D3EF9400EE64809480400F7D287C72DC27
:0A10CF00FEDDFAEF1F70E91E80E657
:0110D90022F4
:1008E100EE6003020CE5EF24FE7003020990147020
:0B08F10003020A1924026003020CE558
:1008FC007580FE7F0A7E001210BF7580FD7F0A7E18
:10090C00001210BF7580FB7F0A7E001210BF75802D
:10091C00F77F0A7E001210BF7580EF7F0A7E0012EF
:10092C0010BF7580DF7F0A7E001210BF7580BF7FFD
:10093C000A7E001210BF75807F7F0A7E001210BFE6
:10094C007580BF7F0A7E001210BF7580DF7F0A7E24
:10095C00001210BF7580EF7F0A7E001210BF7580E9
:10096C00F77F0A7E001210BF7580FB7F0A7E001293
:10097C0010BF7580FD7F0A7E001210BF7580FE7F50
:10098C000A020A1475807E7F0A7E001210BF7580E1
:10099C00BD7F0A7E001210BF7580DB7F0A7E0012BD
:1009AC0010BF7580E77F0A7E001210BF7580DB7F59
:1009BC000A7E001210BF7580BD7F0A7E001210BF28
:1009CC0075807E7F0A7E001210BF7580FF7F1E7EB1
:1009DC00001210BFE4F5807F0AFE1210BF7580FF75
:1009EC007F0A7E001210BFE4F5807F0AFE1210BF52
:1009FC007580FF7F0A7E001210BFE4F5807F0AFE2F
:100A0C001210BF7580FF7F287E000210BF75140A7C
:100A1C00751328751272E4FFFEFDFCAB0BAA0AA934
:100A2C0009A808120679601D401BE4FFFE7D707C4E
:100A3C0042AB0BAA0AA909A8081206795007E4F5DB
:100A4C0080F590F5A0E4FFFE7D707C42AB0BAA0A0A
:100A5C00A909A808120679601F401DE4FFFE7DF06D
:100A6C007C42AB0BAA0AA909A80812067950097591
:100A7C0080F37590F375A0F3E4FFFE7DF07C42AB40
:100A8C000BAA0AA909A808120679601D401BE4FFED
:100A9C00FE7D347C43AB0BAA0AA909A8081206797F
:100AAC005007E4F580F590F5A0E4FFFE7D347C431F
:100ABC00AB0BAA0AA909A808120679601F401DE40D
:100ACC00FFFE7D707C43AB0BAA0AA909A80812068D
:100ADC007950097580F37590F375A0F3E4FFFE7DF2
:100AEC00707C43AB0BAA0AA909A808120679601DF1
:100AFC00401BE4FFFE7D967C43AB0BAA0AA909A818
:100B0C00081206795007E4F580F590F5A0E4FFFE95
:100B1C007D967C43AB0BAA0AA909A808120679603A
:100B2C001F401DE4FFFE7DB47C43AB0BAA0AA90950
:100B3C00A80812067950097580F37590F375A0F327
:100B4C001512E5126003020A221513E51360030265
:100B5C000A1F1514E5146003020A1CE4F5807514D1
:100B6C0021751328751272D512FDD513F7D514F112
:100B7C0075140A751328751272E4FFFEFDFCAB0B9D
:100B8C00AA0AA909A808120679601F401DE4FFFEF5
:100B9C007D707C42AB0BAA0AA909A80812067950F1
:100BAC00097580FF7590FF75A0FFE4FFFE7D707CDA
:100BBC0042AB0BAA0AA909A808120679601F401DAE
:100BCC00E4FFFE7DF07C42AB0BAA0AA909A808122F
:100BDC000679500975800C75900C75A00CE4FFFE1D
:100BEC007DF07C42AB0BAA0AA909A8081206796011
:100BFC001F401DE4FFFE7D347C43AB0BAA0AA90900
:100C0C00A80812067950097580FF7590FF75A0FF32
:100C1C00E4FFFE7D347C43AB0BAA0AA909A8081299
:100C2C000679601F401DE4FFFE7D707C43AB0BAA70
:100C3C000AA909A808120679500975800C75900C40
:100C4C0075A00CE4FFFE7D707C43AB0BAA0AA909CE
:100C5C00A808120679601F401DE4FFFE7D967C43B8
:100C6C00AB0BAA0AA909A80812067950097580FFCE
:100C7C007590FF75A0FFE4FFFE7D967C43AB0BAA3D
:100C8C000AA909A808120679601F401DE4FFFE7D21
:100C9C00B47C43AB0BAA0AA909A80812067950091F
:100CAC0075800C75900C75A00C1512E51260030282
:100CBC000B851513E5136003020B821514E5146004
:100CCC0003020B7FE4F580751421751328751272DD
:090CDC00D512FDD513F7D514F172
:010CE50022EC
:10107300E50D6414450C70067F01FE1208E1E50DD1
:101083006428450C70067F02FE1208E1E50D643CFE
:0B109300450C70067F03FE1208E122EE
:10002600E4FFFEFDFCAB0BAA0AA909A80812067993
:1000360060194017E4FFFE7D707C41AB0BAA0AA94C
:1000460009A8081206795003020405E4FFFE7D7034
:100056007C41AB0BAA0AA909A808120679601940C7
:1000660017E4FFFE7DF07C41AB0BAA0AA909A8089C
:100076001206795003020458E4FFFE7DF07C41AB82
:100086000BAA0AA909A80812067960194017E4FF05
:10009600FE7D347C42AB0BAA0AA909A80812067990
:1000A60050030204ABE4FFFE7D347C42AB0BAA0A8C
:1000B600A909A80812067960194017E4FFFE7D70A9
:1000C6007C42AB0BAA0AA909A808120679500302BA
:1000D6000405E4FFFE7D707C42AB0BAA0AA909A8C1
:1000E60008120679601B4019E4FFFE7D967C42AB40
:1000F6000BAA0AA909A8081206796005400302049A
:1001060058E4FFFE7D967C42AB0BAA0AA909A80813
:1001160012067960194017E4FFFE7DB47C42AB0BF2
:10012600AA0AA909A80812067950030204ABE4FF3B
:10013600FE7DB47C42AB0BAA0AA909A8081206796F
:1001460060194017E4FFFE7DD27C42AB0BAA0AA9D8
:1001560009A8081206795003020405E4FFFE7DD2C1
:100166007C42AB0BAA0AA909A808120679601940B5
:1001760017E4FFFE7DF07C42AB0BAA0AA909A8088A
:100186001206795003020458E4FFFE7DF07C42AB70
:100196000BAA0AA909A80812067960194017E4FFF4
:1001A600FE7D077C43AB0BAA0AA909A808120679AB
:1001B60050030204ABE4FFFE7D077C43AB0BAA0AA7
:1001C600A909A80812067960194017E4FFFE7D16F2
:1001D6007C43AB0BAA0AA909A808120679500302A8
:1001E6000405E4FFFE7D167C43AB0BAA0AA909A809
:1001F6000812067960194017E4FFFE7D257C43ABA3
:100206000BAA0AA909A8081206795003020458E4A1
:10021600FFFE7D257C43AB0BAA0AA909A808120696
:100226007960194017E4FFFE7D347C43AB0BAA0AC4
:10023600A909A80812067950030204ABE4FFFE7D63
:10024600347C43AB0BAA0AA909A8081206796019DF
:100256004017E4FFFE7D437C43AB0BAA0AA909A81D
:10026600081206795003020405E4FFFE7D437C4331
:10027600AB0BAA0AA909A80812067960194017E467
:10028600FFFE7D527C43AB0BAA0AA909A8081206F9
:10029600795003020458E4FFFE7D527C43AB0BAA5F
:1002A6000AA909A80812067960194017E4FFFE7D1D
:1002B600617C43AB0BAA0AA909A808120679500368
:1002C6000204ABE4FFFE7D617C43AB0BAA0AA909DD
:1002D600A80812067960194017E4FFFE7D707C437A
:1002E600AB0BAA0AA909A80812067950030204054D
:1002F600E4FFFE7D707C43AB0BAA0AA909A808128D
:10030600067960194017E4FFFE7D7F7C43AB0BAA9C
:100316000AA909A8081206795003020458E4FFFE48
:100326007D7F7C43AB0BAA0AA909A808120679604F
:10033600194017E4FFFE7D877C43AB0BAA0AA90987
:10034600A80812067950030204ABE4FFFE7D877C01
:1003560043AB0BAA0AA909A808120679601A401825
:100366007F007E807D8E7C43AB0BAA0AA909A80874
:1003760012067950030204057F007E807D8E7C4341
:10038600AB0BAA0AA909A80812067960194017E456
:10039600FFFE7D967C43AB0BAA0AA909A8081206A4
:1003A600795003020458E4FFFE7D967C43AB0BAA0A
:1003B6000AA909A808120679601A40187F007E80EB
:1003C6007D9D7C43AB0BAA0AA909A80812067950A1
:1003D600030204AB7F007E807D9D7C43AB0BAA0AA3
:1003E600A909A808120679603E403CE4FFFE7DA5F7
:1003F6007C43AB0BAA0AA909A808120679502875EE
:1004060090FF75A0FF7580F97F017E0012000375CD
:1004160080207F027E001200037580F97F017E0036
:100426001200037580FF22E4FFFE7DA57C43AB0B23
:10043600AA0AA909A808120679603F403D7F007EF6
:10044600807DAC7C43AB0BAA0AA909A808120679E1
:1004560050287580FF75A0FF7590F97F017E001208
:1004660000037590207F027E001200037590F97FCD
:10047600017E001200037590FF227F007E807DAC16
:100486007C43AB0BAA0AA909A808120679603D406D
:100496003BE4FFFE7DB47C43AB0BAA0AA909A8087E
:1004A60012067950277580FF7590FF75A0F97F01B8
:1004B6007E0012000375A0207F027E0012000375E5
:0D04C600A0F97F017E0012000375A0FF2247
:1010460001210001400002220000022400000226C5
:10105600000002280000020000000400000000005A
:0C106600C102044700000000025100001D
:10109E001210DAE4FFFEFDFCAB0BAA0AA909A808A0
:1010AE0012067960074005E4F58080E77580FF80C1
:0110BE00E24F
:1010DA00D2AFD2AC75985075CAFD75CBFF75CCFDF1
:0710EA0075CDFF75C834222B
:03002300020E0EBC
:100E0E00C0E0C0F0C083C082C0D075D000C000C0AA
:100E1E0001C002C003C004C005C006C0072098036D
:100E2E00020EB5C298AF99E52125E0242AF8760086
:100E3E0008A607E5217008E52B6455452A706D0557
:100E4E0021E521640B7060F521E52C705AE52D2407
:100E5E00AE6036047051E531452EF541E52FF54271
:100E6E00AC41AD42EC1206EBE4FBFAF97845120503
:100E7E00DC12100B7B337A33796578421204D38FF0
:100E8E000B8E0A8D098C08801EE531452EF553E533
:100E9E002FF554E5354532F555E533F556E539452B
:100EAE0036F557E537F558309902C299D007D00676
:100EBE00D005D004D003D002D001D000D0D0D08243
:070ECE00D083D0F0D0E03228
:1004D300EC4D6011E8497017ED33EC3304600DE423
:1004E300FCFFFEFD22E933E8330470F802075912DA
:1004F300072458046009E4CC2481500628500902DB
:100503000763284003020760C0E0EB4A7044B980E8
:1005130006D0E0FB02074FEF4E701CBD8008EBFFD7
:10052300EAFEE9FD80EBE98DF0A4FEE5F00205BCEF
:10053300E9CDF9EAFEEBFFEF89F0A4FCE5F0CE8903
:10054300F0A42EFFE435F0CD89F0A42DFEE435F0C0
:100553008067EF4E7005BD80D780C3EF8BF0A4ACEE
:10056300F0EE8BF0A42CFCE435F0F8EF8AF0A42C29
:10057300E5F038FCE433CB8DF0A42CFCE5F03BF83C
:10058300EE8AF0A42CFCE5F038F8E433CF89F0A42C
:100593002CFCE5F038CF3400CE89F0A42FFFE5F032
:1005A3003EFEE433C98DF0A42EFEE5F039CD8AF08A
:1005B300A42FFFE5F03EFEE43DFD33D0E0FB500702
:1005C3000BBB000F020763EC2CFCEF33FFEE33FE93
:0605D300ED33FD02073BC1
:1005D900020763EC5D046005E859047003020759DA
:1005E900120724580460F6EC4860F2EC7004FDFE32
:1005F900FF22C860DB2481C85009C39860025006F5
:100609000207609850CAF582E9294B4A7005AB8206
:1006190002074F75F0007C1A7880C3EF9BEE9AEDC4
:1006290099400DC3EF9BFFEE9AFEED99FDE842F06C
:10063900DC23ACF0D0E0FFD0E0FED0E0FDAB8220BF
:10064900E7101BEB60BAEC2CFCEF33FFEE33FEED49
:1006590033FD02073BE803F830E705C0F075F00009
:10066900EF2FFFEE33FEED33FD40B830E7C280AA2D
:1006790074F8CC6480CCC86480C8F582046043C334
:10068900EB9FF5F0EA9E42F0E99D42F0E89C45F0C7
:1006990060305018E5825FFFE582F42B5582FB50EC
:1006A900210ABA001D09B90019088016E5825BFB09
:1006B900E582F42F5582FF50090EBE00050DBD00DD
:1006C900010CC3EB9FF5F0EA9E42F0E99D42F0E888
:0D06D9009C45F06007CC4820E701B3EC22FF
:1006E60075F020800E75F010800575F0087D007E8F
:1006F600007F003392D530D5031208B3EC33401097
:10070600EF33FFEE33FEED33FDEC33FCD5F0ED2297
:0E071600E5F0247EA2D513CC92E7CDCEFF22D3
:10100B00ECC0E0F8EDC0E0F9EEC0E0FAEFC0E0FBB9
:10101B001204D3EC6480FC7B007A007980783F1259
:10102B000775120ED9D0E0CFFBD0E0CEFAD0E0CDD1
:0B103B00F9D0E0CCF81205DC020D0635
:10072400E9D2E7C933E833F892D5EDD2E7CD33EC1B
:0707340033FC5002B2D52294
:10073B00EC30E7100FBF000C0EBE00080DBD00041F
:10074B000BEB6014A2D5EB13FCED92E7FD2274FFCB
:10075B00FCFDFEFF22E480F8A2D574FF13FC7D8024
:03076B00E480EF38
:10076E00020759E86480F8E933E83360110460F059
:10077E00ED33EC337009E8FCE9FDEAFEEBFF2204F1
:10078E0060DED3EB9FEA9EE99DE8C2E78CF0C2F7EC
:10079E0095F0400CE8CCF8E9CDF9EACEFAEBCFFBB8
:1007AE0012072485D0F05804700320D5B3E80470E6
:1007BE00075002B2D502076392D5EC0460F7E4CC81
:1007CE00C0E0C398F8603B94186008400DD0E0FB81
:1007DE0002073BE4FBFAC9FC8028E830E406E4C9D2
:1007EE00FBE4CAFCE830E305E4C9CACBFCE85407D5
:1007FE006010F8C3E913F9EA13FAEB13FBEC13FCE0
:10080E00D8F130F52FC3E49CFCEF9BFFEE9AFEED82
:10081E0099FDD0E0FBEF4E4D4C701222DB03020728
:10082E0060EC2CFCEF33FFEE33FEED33FDED30E7E5
:10083E00EB02073BEF2BFFEE3AFEED39FDD0E0FB6E
:10084E0050130BBB0003020763ED13FDEE13FEEF17
:08085E0013FFEC13FC02073B41
:100ED50002075922EDA2E7D2E7F9EC3340F260F3BD
:100EE500B4FF08ED547F70E8020763F82481C2E07F
:100EF500C0E0F40428FAC313FCED92E7FD8C0E8DD7
:100F05000F8E108F11EEA2E7E9BA7F02C3133400EA
:100F15009400FA75F091A4E5F013F494FE8AF0A418
:100F250033E5F033248CD313FDE492E7FE7F007C98
:100F35003F758302ECC0E0F8EDC0E0F9EEC0E0FAE1
:100F4500EFC0E0FBAC0EAD0FAE10AF111205DCD05B
:100F5500E0FBD0E0FAD0E0F9D0E0F8120775ED64D7
:100F650080FD30E7011CD583CBED33CC33F8D0E0E1
:0A0F7500A2E71328C313CC13FD22DA
:100CE600BE1249253E4CCCCDBEAAAAAB3F80000021
:100CF6003E7ADBB03EED63383F24BC7D3F490FDBD7
:100D0600ED33ECC2E7CC339200B4FF13ED547F60B1
:100D1600030207597FDB7E0F7DC97C3F020E01C2AD
:100D260001C3947F401E7007EDD2E794904015EF03
:100D3600FBEEFAEDF9ECF87F007E007D807C3F1239
:100D460005DCD201ED33EC33248430E705E4C0E062
:100D5600806D04FAEDD2E754F0C333DAFD5407345C
:100D6600002323C0E0CCC0E0F8EDC0E0F9EEC0E01F
:100D7600FAEFC0E0FBE41206F0EC24FEFC8C0E8DCC
:100D86000F8E108F111204D37B007A007980783F82
:100D9600120775ECC50EB2E7FCEDC50FFDEEC510EA
:100DA600FEEFC511FFD0E0FBD0E0FAD0E0F9D0E0CD
:100DB600F8120775A80EA90FAA10AB111205DC8C44
:100DC6000E8D0F8E108F11900CE67403120866A814
:100DD6000EA90FAA10AB111204D3D0E0600F24F2B3
:100DE600F582E4340CF5831208D112077530010B35
:100DF6007BDB7A0F79C978BF120775ED33EC336068
:080E060006ECA20092E7FC22B9
:10086600C0E0EFFBEEFAEDF9ECF81204D3D0E0F5B8
:10087600F0EFFBEEFAEDF9ECF81208C1A3A3A3A37F
:10088600E8C0E0E9C0E0EAC0E0EBC0E0C0F0120476
:10089600D31208D1A3A3A3A3120775D0F0D0E0FB0F
:0D08A600D0E0FAD0E0F9D0E0F8D5F0D4228F
:100F8B0002109EE493A3F8E493A34003F68001F2CE
:100F9B0008DFF48029E493A3F85407240CC8C33367
:100FAB00C4540F4420C8834004F456800146F6DF36
:100FBB00E4800B0102040810204080901046E47E70
:100FCB00019360BCA3FF543F30E509541FFEE4932B
:100FDB00A360010ECF54C025E060A840B8E493A3F2
:100FEB00FAE493A3F8E493A3C8C582C8CAC583CA1D
:100FFB00F0A3C8C582C8CAC583CADFE9DEE780BED5
:01107200007D
:0E08B300C3E49FFFE49EFEE49DFDE49CFC2256
:1008C100E493FC740193FD740293FE740393FF227D
:1008D100E493F8740193F9740293FA740393FB227D
:00000001FF
