:030000000218667D
:0C186600787FE4F6D8FD7581580218ADBB
:10000300D3EF9400EE64809480400F7D0D7C21DC5F
:0A001300FEDDFAEF1F70E91E80E623
:01001D0022C0
:1019BA00D3EF9400EE64809480400F7D287C72DC23
:0A19CA00FEDDFAEF1F70E91E80E653
:0119D40022F0
:10110F00EE6003021513EF24FE70030211BE14707C
:0B111F000302124724026003021513B4
:10112A007580FE7F0A7E001219BA7580FD7F0A7EDD
:10113A00001219BA7580FB7F0A7E001219BA7580EF
:10114A00F77F0A7E001219BA7580EF7F0A7E0012B5
:10115A0019BA7580DF7F0A7E001219BA7580BF7FBF
:10116A000A7E001219BA75807F7F0A7E001219BAA8
:10117A007580BF7F0A7E001219BA7580DF7F0A7EEA
:10118A00001219BA7580EF7F0A7E001219BA7580AB
:10119A00F77F0A7E001219BA7580FB7F0A7E001259
:1011AA0019BA7580FD7F0A7E001219BA7580FE7F12
:1011BA000A02124275807E7F0A7E001219BA758071
:1011CA00BD7F0A7E001219BA7580DB7F0A7E001283
:1011DA0019BA7580E77F0A7E001219BA7580DB7F1B
:1011EA000A7E001219BA7580BD7F0A7E001219BAEA
:1011FA0075807E7F0A7E001219BA7580FF7F1E7E77
:10120A00001219BAE4F5807F0AFE1219BA7580FF36
:10121A007F0A7E001219BAE4F5807F0AFE1219BA13
:10122A007580FF7F0A7E001219BAE4F5807F0AFEF4
:10123A001219BA7580FF7F287E000219BA75140A3E
:10124A00751328751272E4FFFEFDFCAB0BAA0AA9FE
:10125A0009A808120F9F601D401BE4FFFE7D707CE9
:10126A0042AB0BAA0AA909A808120F9F5007E4F576
:10127A0080F590F5A0E4FFFE7D707C42AB0BAA0AD4
:10128A00A909A808120F9F601F401DE4FFFE7DF008
:10129A007C42AB0BAA0AA909A808120F9F5009752C
:1012AA0080F37590F375A0F3E4FFFE7DF07C42AB0A
:1012BA000BAA0AA909A808120F9F601D401BE4FF88
:1012CA00FE7D347C43AB0BAA0AA909A808120F9F1A
:1012DA005007E4F580F590F5A0E4FFFE7D347C43E9
:1012EA00AB0BAA0AA909A808120F9F601F401DE4A8
:1012FA00FFFE7D707C43AB0BAA0AA909A808120F4E
:10130A009F50097580F37590F375A0F3E4FFFE7D95
:10131A00707C43AB0BAA0AA909A808120F9F601D8B
:10132A00401BE4FFFE7D967C43AB0BAA0AA909A8E1
:10133A0008120F9F5007E4F580F590F5A0E4FFFE30
:10134A007D967C43AB0BAA0AA909A808120F9F60D5
:10135A001F401DE4FFFE7DB47C43AB0BAA0AA9091A
:10136A00A808120F9F50097580F37590F375A0F3C2
:10137A001512E51260030212501513E513600302F9
:10138A00124D1514E514600302124AE4F58075142F
:10139A0021751328751272D512FDD513F7D514F1DC
:1013AA0075140A751328751272E4FFFEFDFCAB0B67
:1013BA00AA0AA909A808120F9F601F401DE4FFFE90
:1013CA007D707C42AB0BAA0AA909A808120F9F508C
:1013DA00097580FF7590FF75A0FFE4FFFE7D707CA4
:1013EA0042AB0BAA0AA909A808120F9F601F401D49
:1013FA00E4FFFE7DF07C42AB0BAA0AA909A80812F9
:10140A000F9F500975800C75900C75A00CE4FFFEB7
:10141A007DF07C42AB0BAA0AA909A808120F9F60AB
:10142A001F401DE4FFFE7D347C43AB0BAA0AA909C9
:10143A00A808120F9F50097580FF7590FF75A0FFCD
:10144A00E4FFFE7D347C43AB0BAA0AA909A8081263
:10145A000F9F601F401DE4FFFE7D707C43AB0BAA0B
:10146A000AA909A808120F9F500975800C75900CDB
:10147A0075A00CE4FFFE7D707C43AB0BAA0AA90998
:10148A00A808120F9F601F401DE4FFFE7D967C4353
:10149A00AB0BAA0AA909A808120F9F50097580FF69
:1014AA007590FF75A0FFE4FFFE7D967C43AB0BAA07
:1014BA000AA909A808120F9F601F401DE4FFFE7DBC
:1014CA00B47C43AB0BAA0AA909A808120F9F5009BA
:1014DA0075800C75900C75A00C1512E5126003024C
:1014EA0013B31513E51360030213B01514E5146062
:1014FA00030213ADE4F58075142175132875127271
:09150A00D512FDD513F7D514F13B
:0115130022B5
:10198F00E50D6414450C70067F01FE12110FE50D75
:10199F006428450C70067F02FE12110FE50D643CA2
:0B19AF00450C70067F03FE12110F2292
:10002600E4FFFEFDFCAB0BAA0AA909A808120F9F64
:1000360060194017E4FFFE7DA07C40AB0BAA0AA91D
:1000460009A808120F9F5003020BF7E4FFFE7DA0DC
:100056007C40AB0BAA0AA909A808120F9F60194099
:1000660017E4FFFE7D207C41AB0BAA0AA909A8086C
:10007600120F9F5003020C27E4FFFE7D207C41AB4C
:100086000BAA0AA909A808120F9F60194017E4FFD6
:10009600FE7D707C41AB0BAA0AA909A808120F9F26
:1000A6005003020C5AE4FFFE7D707C41AB0BAA0A9A
:1000B600A909A808120F9F60194017E4FFFE7DA04A
:1000C6007C41AB0BAA0AA909A808120F9F5003028C
:1000D6000C8FE4FFFE7DA07C41AB0BAA0AA909A800
:1000E60008120F9F60194017E4FFFE7DC87C41ABE4
:1000F6000BAA0AA909A808120F9F5003020CC2E412
:10010600FFFE7DC87C41AB0BAA0AA909A808120FFD
:100116009F60194017E4FFFE7DF07C41AB0BAA0AF5
:10012600A909A808120F9F5003020CF7E4FFFE7DF1
:10013600F07C41AB0BAA0AA909A808120F9F601907
:100146004017E4FFFE7D0C7C42AB0BAA0AA909A866
:1001560008120F9F5003020BF7E4FFFE7D0C7C4252
:10016600AB0BAA0AA909A808120F9F60194017E449
:10017600FFFE7D207C42AB0BAA0AA909A808120F34
:100186009F5003020C27E4FFFE7D207C42AB0BAAA6
:100196000AA909A808120F9F60194017E4FFFE7DFF
:1001A600347C42AB0BAA0AA909A808120F9F500378
:1001B600020C5AE4FFFE7D347C42AB0BAA0AA90965
:1001C600A808120F9F60194017E4FFFE7D487C4285
:1001D600AB0BAA0AA909A808120F9F5003020C8F9D
:1001E600E4FFFE7D487C42AB0BAA0AA909A80812C7
:1001F6000F9F60194017E4FFFE7D5C7C42AB0BAAA3
:100206000AA909A808120F9F5003020CC2E4FFFEB8
:100216007D5C7C42AB0BAA0AA909A808120F9F6055
:10022600194017E4FFFE7D707C42AB0BAA0AA909B0
:10023600A808120F9F5003020CF7E4FFFE7D707CA6
:1002460042AB0BAA0AA909A808120F9F601940170A
:10025600E4FFFE7D827C42AB0BAA0AA909A808121C
:100266000F9F5003020BF7E4FFFE7D827C42AB0B2F
:10027600AA0AA909A808120F9F60194017E4FFFEF1
:100286007D8C7C42AB0BAA0AA909A808120F9F50C5
:1002960003020C27E4FFFE7D8C7C42AB0BAA0AA965
:1002A60009A808120F9F60194017E4FFFE7D967C8F
:1002B60042AB0BAA0AA909A808120F9F5003020C09
:1002C6005AE4FFFE7D967C42AB0BAA0AA909A80850
:1002D600120F9F60194017E4FFFE7DA07C42AB0B16
:1002E600AA0AA909A808120F9F5003020C8FE4FF5F
:1002F600FE7DA07C42AB0BAA0AA909A808120F9F93
:1003060060194017E4FFFE7DAA7C42AB0BAA0AA93E
:1003160009A808120F9F5003020CC2E4FFFE7DAA33
:100326007C42AB0BAA0AA909A808120F9F601940C4
:1003360017E4FFFE7DB47C42AB0BAA0AA909A80804
:10034600120F9F5003020CF7E4FFFE7DB47C42AB14
:100356000BAA0AA909A808120F9F60194017E4FF03
:10036600FE7DBE7C42AB0BAA0AA909A808120F9F04
:100376005003020BF7E4FFFE7DBE7C42AB0BAA0ADC
:10038600A909A808120F9F60194017E4FFFE7DC84F
:100396007C42AB0BAA0AA909A808120F9F500302B8
:1003A6000C27E4FFFE7DC87C42AB0BAA0AA909A86C
:1003B60008120F9F60194017E4FFFE7DD27C42AB06
:1003C6000BAA0AA909A808120F9F5003020C5AE4A7
:1003D600FFFE7DD27C42AB0BAA0AA909A808120F20
:1003E6009F60194017E4FFFE7DDC7C42AB0BAA0A36
:1003F600A909A808120F9F5003020C8FE4FFFE7D87
:10040600DC7C42AB0BAA0AA909A808120F9F601947
:100416004017E4FFFE7DE67C42AB0BAA0AA909A8B9
:1004260008120F9F5003020CC2E4FFFE7DE67C42D9
:10043600AB0BAA0AA909A808120F9F60194017E476
:10044600FFFE7DF07C42AB0BAA0AA909A808120F91
:100456009F5003020CF7E4FFFE7DF07C42AB0BAA33
:100466000AA909A808120F9F60194017E4FFFE7D2C
:10047600FA7C42AB0BAA0AA909A808120F9F5003DF
:10048600020BF7E4FFFE7DFA7C42AB0BAA0AA90930
:10049600A808120F9F60194017E4FFFE7D027C43F7
:1004A600AB0BAA0AA909A808120F9F5003020C2732
:1004B600E4FFFE7D027C43AB0BAA0AA909A8081239
:1004C6000F9F60194017E4FFFE7D077C43AB0BAA24
:1004D6000AA909A808120F9F5003020C5AE4FFFE4E
:1004E6007D077C43AB0BAA0AA909A808120F9F60D7
:1004F600194017E4FFFE7D0C7C43AB0BAA0AA90941
:10050600A808120F9F5003020C8FE4FFFE7D0C7C9F
:1005160043AB0BAA0AA909A808120F9F6019401736
:10052600E4FFFE7D117C43AB0BAA0AA909A80812B9
:100536000F9F5003020CC2E4FFFE7D117C43AB0B00
:10054600AA0AA909A808120F9F60194017E4FFFE1E
:100556007D167C43AB0BAA0AA909A808120F9F5067
:1005660003020CF7E4FFFE7D167C43AB0BAA0AA937
:1005760009A808120F9F60194017E4FFFE7D1B7C37
:1005860043AB0BAA0AA909A808120F9F5003020B36
:10059600F7E4FFFE7D1B7C43AB0BAA0AA909A8085A
:1005A600120F9F60194017E4FFFE7D207C43AB0BC2
:1005B600AA0AA909A808120F9F5003020C27E4FFF4
:1005C600FE7D207C43AB0BAA0AA909A808120F9F3F
:1005D60060194017E4FFFE7D257C43AB0BAA0AA9F0
:1005E60009A808120F9F5003020C5AE4FFFE7D254E
:1005F6007C43AB0BAA0AA909A808120F9F601940F1
:1006060017E4FFFE7D2A7C43AB0BAA0AA909A808BA
:10061600120F9F5003020C8FE4FFFE7D2A7C43AB32
:100626000BAA0AA909A808120F9F60194017E4FF30
:10063600FE7D2F7C43AB0BAA0AA909A808120F9FBF
:100646005003020CC2E4FFFE7D2F7C43AB0BAA0ACB
:10065600A909A808120F9F60194017E4FFFE7D3410
:100666007C43AB0BAA0AA909A808120F9F500302E4
:100676000CF7E4FFFE7D347C43AB0BAA0AA909A85C
:1006860008120F9F60194017E4FFFE7D397C43ABCB
:100696000BAA0AA909A808120F9F5003020BF7E438
:1006A600FFFE7D397C43AB0BAA0AA909A808120FE5
:1006B6009F60194017E4FFFE7D3E7C43AB0BAA0A00
:1006C600A909A808120F9F5003020C27E4FFFE7D1C
:1006D6003E7C43AB0BAA0AA909A808120F9F601912
:1006E6004017E4FFFE7D437C43AB0BAA0AA909A889
:1006F60008120F9F5003020C5AE4FFFE7D437C4311
:10070600AB0BAA0AA909A808120F9F60194017E4A3
:10071600FFFE7D487C43AB0BAA0AA909A808120F65
:100726009F5003020C8FE4FFFE7D487C43AB0BAA6F
:100736000AA909A808120F9F60194017E4FFFE7D59
:100746004D7C43AB0BAA0AA909A808120F9F5003B8
:10075600020CC2E4FFFE7D4D7C43AB0BAA0AA9093D
:10076600A808120F9F60194017E4FFFE7D527C43D4
:10077600AB0BAA0AA909A808120F9F5003020CF78F
:10078600E4FFFE7D527C43AB0BAA0AA909A8081216
:100796000F9F60194017E4FFFE7D577C43AB0BAA01
:1007A6000AA909A808120F9F5003020BF7E4FFFEDF
:1007B6007D577C43AB0BAA0AA909A808120F9F60B4
:1007C600194017E4FFFE7D5C7C43AB0BAA0AA9091E
:1007D600A808120F9F5003020C27E4FFFE7D5C7CE5
:1007E60043AB0BAA0AA909A808120F9F6019401764
:1007F600E4FFFE7D617C43AB0BAA0AA909A8081297
:100806000F9F5003020C5AE4FFFE7D617C43AB0B45
:10081600AA0AA909A808120F9F60194017E4FFFE4B
:100826007D667C43AB0BAA0AA909A808120F9F5044
:1008360003020C8FE4FFFE7D667C43AB0BAA0AA97C
:1008460009A808120F9F60194017E4FFFE7D6B7C14
:1008560043AB0BAA0AA909A808120F9F5003020C62
:10086600C2E4FFFE7D6B7C43AB0BAA0AA909A8086C
:10087600120F9F60194017E4FFFE7D707C43AB0B9F
:10088600AA0AA909A808120F9F5003020CF7E4FF51
:10089600FE7D707C43AB0BAA0AA909A808120F9F1C
:1008A60060194017E4FFFE7D757C43AB0BAA0AA9CD
:1008B60009A808120F9F5003020BF7E4FFFE7D758F
:1008C6007C43AB0BAA0AA909A808120F9F6019401E
:1008D60017E4FFFE7D7A7C43AB0BAA0AA909A80898
:1008E600120F9F5003020C27E4FFFE7D7A7C43AB78
:1008F6000BAA0AA909A808120F9F60194017E4FF5E
:10090600FE7D7F7C43AB0BAA0AA909A808120F9F9C
:100916005003020C5AE4FFFE7D7F7C43AB0BAA0A10
:10092600A909A808120F9F60194017E4FFFE7D82EF
:100936007C43AB0BAA0AA909A808120F9F50030211
:100946000C8FE4FFFE7D827C43AB0BAA0AA909A8A3
:1009560008120F9F601A40187F007E807D847C43BA
:10096600AB0BAA0AA909A808120F9F5003020CC2D2
:100976007F007E807D847C43AB0BAA0AA909A80868
:10098600120F9F60194017E4FFFE7D877C43AB0B77
:10099600AA0AA909A808120F9F5003020CF7E4FF40
:1009A600FE7D877C43AB0BAA0AA909A808120F9FF4
:1009B600601A40187F007E807D897C43AB0BAA0AB3
:1009C600A909A808120F9F5003020BF77F007E802B
:1009D6007D897C43AB0BAA0AA909A808120F9F6060
:1009E600194017E4FFFE7D8C7C43AB0BAA0AA909CC
:1009F600A808120F9F5003020C27E4FFFE7D8C7C93
:100A060043AB0BAA0AA909A808120F9F601A40183F
:100A16007F007E807D8E7C43AB0BAA0AA909A808BD
:100A2600120F9F5003020C5A7F007E807D8E7C43FE
:100A3600AB0BAA0AA909A808120F9F60194017E470
:100A4600FFFE7D917C43AB0BAA0AA909A808120FE9
:100A56009F5003020C8FE4FFFE7D917C43AB0BAAF3
:100A66000AA909A808120F9F601A40187F007E8005
:100A76007D937C43AB0BAA0AA909A808120F9F50C5
:100A860003020CC27F007E807D937C43AB0BAA0AD7
:100A9600A909A808120F9F60194017E4FFFE7D966A
:100AA6007C43AB0BAA0AA909A808120F9F500302A0
:100AB6000CF7E4FFFE7D967C43AB0BAA0AA909A8B6
:100AC60008120F9F601A40187F007E807D987C4335
:100AD600AB0BAA0AA909A808120F9F5003020BF72D
:100AE6007F007E807D987C43AB0BAA0AA909A808E3
:100AF600120F9F60194017E4FFFE7D9B7C43AB0BF2
:100B0600AA0AA909A808120F9F5003020C27E4FF9E
:100B1600FE7D9B7C43AB0BAA0AA909A808120F9F6E
:100B2600601A40187F007E807D9D7C43AB0BAA0A2D
:100B3600A909A808120F9F5003020C5A7F007E8055
:100B46007D9D7C43AB0BAA0AA909A808120F9F60DA
:100B5600194017E4FFFE7DA07C43AB0BAA0AA90946
:100B6600A808120F9F5003020C8FE4FFFE7DA07CA5
:100B760043AB0BAA0AA909A808120F9F601A4018CE
:100B86007F007E807DA27C43AB0BAA0AA909A80838
:100B9600120F9F5003020CC27F007E807DA27C4311
:100BA600AB0BAA0AA909A808120F9F60194017E4FF
:100BB600FFFE7DA57C43AB0BAA0AA909A808120F64
:100BC6009F5003020CF7E4FFFE7DA57C43AB0BAA06
:100BD6000AA909A808120F9F601C401A7F007E8090
:100BE6007DA77C43AB0BAA0AA909A808120F9F5040
:100BF600057580F9802E7F007E807DA77C43AB0B38
:100C0600AA0AA909A808120F9F601E401CE4FFFE4D
:100C16007DAA7C43AB0BAA0AA909A808120F9F500C
:100C2600087580407590FF8031E4FFFE7DAA7C4305
:100C3600AB0BAA0AA909A808120F9F6021401F7FC3
:100C4600007E807DAC7C43AB0BAA0AA909A80812DA
:100C56000F9F500A7580F97590F975A0FF227F00E5
:100C66007E807DAC7C43AB0BAA0AA909A808120FAB
:100C76009F601E401CE4FFFE7DAF7C43AB0BAA0ABF
:100C8600A909A808120F9F50087580FF759040802B
:100C960066E4FFFE7DAF7C43AB0BAA0AA909A80850
:100CA600120F9F6021401F7F007E807DB17C43AB89
:100CB6000BAA0AA909A808120F9F500A7580FF758A
:100CC60090F975A040227F007E807DB17C43AB0BFE
:100CD600AA0AA909A808120F9F601F401DE4FFFE7B
:100CE6007DB47C43AB0BAA0AA909A808120F9F5032
:0B0CF600097580FF7590FF75A0F922C2
:1019620001210001400002220000022400000226A0
:10197200000002280000022D000004000000000008
:0C198200C10204470000000002510000F8
:10192D001219D5E4FFFEFDFCAB0BAA0AA909A80804
:10193D00120F9F601B4019E4FFFE7DB47C42AB0B80
:10194D00AA0AA909A808120F9F5005E4F58080D3B3
:05195D007580FF80CE43
:1019D500D2AFD2AC75985075CAFD75CBFF75CCFDED
:0719E50075CDFF75C8342227
:03002300021514AF
:10151400C0E0C0F0C083C082C0D075D000C000C09D
:1015240001C002C003C004C005C006C00720980360
:10153400021674C298AF99E52125E0242AF87600B2
:1015440008A607E521700BE52B6455452A600302C4
:1015540016790521E521640B6003021674F521E573
:101564002C6003021674E52D24AE70030216560493
:101574006003021674E531452EF541E52FF54285E9
:1015840024228525238526248527258541268542F1
:1015940027C3E5239525E5246480F8E52264809833
:1015A4004013D3E5259527E5266480F8E524648077
:1015B400985002C202D3E5239525E5246480F8E51A
:1015C400226480985028C3E5259527E5266480F891
:1015D400E5246480984017D202D3E5569499E555E2
:1015E400648094994008050DE50D7002050CAC412A
:1015F400AD42EC300226121011E4FBFAF9784512E0
:101604000F021218F27B337A3379657842120DF99E
:10161400E4FBFA79B47842120D08802C121011E41C
:10162400FBFAF97845120F021218F27B337A3379F8
:10163400657842120DF9A804A905AA06AB07E4FFD0
:10164400FE7D877C43120D048F0B8E0A8D098C0856
:10165400801EE531452EF553E52FF554E535453229
:10166400F555E533F556E5394536F557E537F5587B
:10167400309902C299D007D006D005D004D003D047
:1016840002D001D000D0D0D082D083D0F0D0E032CC
:100D010002107FE86480F8E933E83360110460F091
:100D1100ED33EC337009E8FCE9FDEAFEEBFF220458
:100D210060DED3EB9FEA9EE99DE8C2E78CF0C2F753
:100D310095F0400CE8CCF8E9CDF9EACEFAEBCFFB1F
:100D410012104A85D0F05804700320D5B3E804701E
:100D5100075002B2D502108992D5EC0460F7E4CCB9
:100D6100C0E0C398F8603B94186008400DD0E0FBE8
:100D7100021061E4FBFAC9FC8028E830E406E4C90A
:100D8100FBE4CAFCE830E305E4C9CACBFCE854073C
:100D91006010F8C3E913F9EA13FAEB13FBEC13FC47
:100DA100D8F130F52FC3E49CFCEF9BFFEE9AFEEDEA
:100DB10099FDD0E0FBEF4E4D4C701222DB03021087
:100DC10086EC2CFCEF33FFEE33FEED33FDED30E727
:100DD100EB021061EF2BFFEE3AFEED39FDD0E0FBA7
:100DE10050130BBB0003021089ED13FDEE13FEEF50
:080DF10013FFEC13FC0210617A
:100DF900EC4D6011E8497017ED33EC3304600DE4F4
:100E0900FCFFFEFD22E933E8330470F802107F127B
:100E1900104A58046009E4CC24815006285009027C
:100E29001089284003021086C0E0EB4A7044B9805B
:100E390006D0E0FB021075EF4E701CBD8008EBFF79
:100E4900EAFEE9FD80EBE98DF0A4FEE5F0020EE291
:100E5900E9CDF9EAFEEBFFEF89F0A4FCE5F0CE89D4
:100E6900F0A42EFFE435F0CD89F0A42DFEE435F091
:100E79008067EF4E7005BD80D780C3EF8BF0A4ACBF
:100E8900F0EE8BF0A42CFCE435F0F8EF8AF0A42CFA
:100E9900E5F038FCE433CB8DF0A42CFCE5F03BF80D
:100EA900EE8AF0A42CFCE5F038F8E433CF89F0A4FD
:100EB9002CFCE5F038CF3400CE89F0A42FFFE5F003
:100EC9003EFEE433C98DF0A42EFEE5F039CD8AF05B
:100ED900A42FFFE5F03EFEE43DFD33D0E0FB5007D3
:100EE9000BBB000F021089EC2CFCEF33FFEE33FE35
:060EF900ED33FD02106163
:100EFF00021089EC5D046005E85904700302107F4D
:100F0F0012104A580460F6EC4860F2EC7004FDFED3
:100F1F00FF22C860DB2481C85009C39860025006C5
:100F2F000210869850CAF582E9294B4A7005AB82A8
:100F3F0002107575F0007C1A7880C3EF9BEE9AED66
:100F4F0099400DC3EF9BFFEE9AFEED99FDE842F03D
:100F5F00DC23ACF0D0E0FFD0E0FED0E0FDAB822090
:100F6F00E7101BEB60BAEC2CFCEF33FFEE33FEED1A
:100F7F0033FD021061E803F830E705C0F075F000AB
:100F8F00EF2FFFEE33FEED33FD40B830E7C280AAFE
:100F9F0074F8CC6480CCC86480C8F582046043C305
:100FAF00EB9FF5F0EA9E42F0E99D42F0E89C45F098
:100FBF0060305018E5825FFFE582F42B5582FB50BD
:100FCF00210ABA001D09B90019088016E5825BFBDA
:100FDF00E582F42F5582FF50090EBE00050DBD00AE
:100FEF00010CC3EB9FF5F0EA9E42F0E99D42F0E859
:0D0FFF009C45F06007CC4820E701B3EC22D0
:10100C0075F020800E75F010800575F0087D007E5F
:10101C00007F003392D530D5031210E1EC33401031
:10102C00EF33FFEE33FEED33FDEC33FCD5F0ED2268
:0E103C00E5F0247EA2D513CC92E7CDCEFF22A4
:1018F200ECC0E0F8EDC0E0F9EEC0E0FAEFC0E0FBCA
:10190200120DF9EC6480FC7B007A007980783F123A
:101912000D081217C0D0E0CFFBD0E0CEFAD0E0CD58
:0B192200F9D0E0CCF8120F020216B45E
:10104A00E9D2E7C933E833F892D5EDD2E7CD33ECEC
:07105A0033FC5002B2D52265
:10106100EC30E7100FBF000C0EBE00080DBD0004F0
:101071000BEB6014A2D5EB13FCED92E7FD2274FF9C
:10108100FCFDFEFF22E480F8A2D574FF13FC7D80F5
:03109100E480EF09
:1017BC0002107F22EDA2E7D2E7F9EC3340F260F39E
:1017CC00B4FF08ED547F70E8021089F82481C2E060
:1017DC00C0E0F40428FAC313FCED92E7FD8C0E8DE7
:1017EC000F8E108F11EEA2E7E9BA7F02C3133400FB
:1017FC009400FA75F091A4E5F013F494FE8AF0A429
:10180C0033E5F033248CD313FDE492E7FE7F007CA8
:10181C003F758302ECC0E0F8EDC0E0F9EEC0E0FAF1
:10182C00EFC0E0FBAC0EAD0FAE10AF11120F02D03B
:10183C00E0FBD0E0FAD0E0F9D0E0F8120D08ED644E
:10184C0080FD30E7011CD583CBED33CC33F8D0E0F1
:0A185C00A2E71328C313CC13FD22EA
:10169400BE1249253E4CCCCDBEAAAAAB3F80000069
:1016A4003E7ADBB03EED63383F24BC7D3F490FDB1F
:1016B400ED33ECC2E7CC339200B4FF13ED547F60FA
:1016C4000302107F7FDB7E0F7DC97C3F0217AFC210
:1016D40001C3947F401E7007EDD2E794904015EF4C
:1016E400FBEEFAEDF9ECF87F007E007D807C3F1282
:1016F4000F02D201ED33EC33248430E705E4C0E07B
:10170400806D04FAEDD2E754F0C333DAFD540734A4
:10171400002323C0E0CCC0E0F8EDC0E0F9EEC0E067
:10172400FAEFC0E0FBE4121016EC24FEFC8C0E8DE4
:101734000F8E108F11120DF97B007A007980783F9B
:10174400120D08ECC50EB2E7FCEDC50FFDEEC51099
:10175400FEEFC511FFD0E0FBD0E0FAD0E0F9D0E015
:10176400F8120D08A80EA90FAA10AB11120F028CC3
:101774000E8D0F8E108F119016947403121094A86E
:101784000EA90FAA10AB11120DF9D0E0600F24A01E
:10179400F582E43416F5831210FF120D0830010BA4
:1017A4007BDB7A0F79C978BF120D08ED33EC336017
:0817B40006ECA20092E7FC2202
:10109400C0E0EFFBEEFAEDF9ECF8120DF9D0E0F553
:1010A400F0EFFBEEFAEDF9ECF81210EFA3A3A3A313
:1010B400E8C0E0E9C0E0EAC0E0EBC0E0C0F0120D37
:1010C400F91210FFA3A3A3A3120D08D0F0D0E0FBE4
:0D10D400D0E0FAD0E0F9D0E0F8D5F0D42259
:1018720002192DE493A3F8E493A34003F68001F246
:1018820008DFF48029E493A3F85407240CC8C33377
:10189200C4540F4420C8834004F456800146F6DF46
:1018A200E4800B0102040810204080901962E47E5B
:1018B200019360BCA3FF543F30E509541FFEE4933B
:1018C200A360010ECF54C025E060A840B8E493A302
:1018D200FAE493A3F8E493A3C8C582C8CAC583CA2D
:1018E200F0A3C8C582C8CAC583CADFE9DEE780BEE5
:01198E000058
:0E10E100C3E49FFFE49EFEE49DFDE49CFC2220
:1010EF00E493FC740193FD740293FE740393FF2247
:1010FF00E493F8740193F9740293FA740393FB2247
:00000001FF
