:0300000002136880
:0C136800787FE4F6D8FD7581200213AFF9
:1014710081000082010000820300008205000082D9
:101481000D0000820F0000820700008409000000A7
:0914910000C100C101C102C10348
:1011EC0012155C783BE2FC08E2FDFFAE04120E82A5
:1011FC00AA06AB077837E2FC08E2FDFFAE04120E3C
:10120C0082EF2BFDEE3AFC120DB2782D120EDB7F25
:10121C00407E547D097C49782DE2FB08E2F908E216
:10122C00FA08E2CBF8120D34600740051200268054
:10123C005F780DE2FE08E2FFC37810E29FFF18E230
:10124C009EFED3EF9484EE648094834005121512B5
:10125C00803E780FE2FE08E2FFC3780EE29FFF1893
:10126C00E29EFED3EF9484EE6480948340051200DA
:10127C001E801D3000047F01800C3001047F028031
:10128C00053002097F037E0012060280031213F45C
:10129C007807E2FE08E2FF64144E7002D200EF649D
:1012AC00284E7002D201EF643C4E60030211EFD263
:0412BC00020211EF2A
:1013F400E4FFFEFDFC7809E2FB08E2F908E2FA08E2
:10140400E2CBF8120D346021401FE4FFFE7DF07C36
:10141400427809E2FB08E2F908E2FA08E2CBF812A2
:101424000D34500575800F8040E4FFFE7DF07C4252
:101434007809E2FB08E2F908E2FA08E2CBF8120DB7
:101444003460234021E4FFFE7D707C437809E2FB95
:1014540008E2F908E2FA08E2CBF8120D34500775F5
:0D146400900F7580FF227580FF7590FF22AC
:10155C00D2AFD2AC75985075CAFD75CBFF75CCFD6A
:07156C0075CDFF75C83422A4
:03002300020EE7E3
:100EE700C0E0C0F0C083C082C0D075D000C000C0D1
:100EF70001C002C003C004C005C006C00720980394
:100F07000210ABC298AF997800E2FD25E02411F8F2
:100F1700E4F208EFF2ED700E7812E26455700218F1
:100F2700E260030210B07800E204F2E2640B6003AF
:100F37000210ABF27813E2FE08E2FFEE6003021044
:100F4700ABEF24AE70030210660460030210AB78A7
:100F570018E2FE7815E24EFE08E2FF7827EEF20867
:100F6700EFF2FF7803E2FD08E27801CDF208EDF237
:100F77007805E2FC08E2FD7803ECF2FC08EDF2FDEF
:100F870008EEF208EFF2C37802E29DEC6480F5F018
:100F970018E2648095F0401B7805E2FE08E2FFD373
:100FA7007804E29FEE6480F5F018E2648095F050D3
:100FB70002C2037803E2FE08E2FFD37802E29FEE63
:100FC7006480F5F018E2648095F0502F7805E2FC14
:100FD70008E2FDC3EF9DEC6480F8EE648098401B47
:100FE700D203D3783AE2949918E264809499400B3B
:100FF7007808E22401F218E23400F27827E2FC08CC
:10100700E2FDEC300326120DB2E4FBFAF978451243
:101017000C971214D77B337A3379657842120B8E8B
:10102700E4FBFA79B47842120A9D802C120DB2E4DF
:10103700FBFAF97845120C971214D77B337A337978
:10104700657842120B8EA804A905AA06AB07E4FF30
:10105700FE7D877C43120A997809120EDB8045785A
:1010670018E2FE7815E24E7937F308E209F3781CA7
:10107700E2FE7819E24E09F308E209F37820E2FE6E
:10108700781DE24E09F308E209F3780FE2FF08E260
:10109700780DCFF208EFF27839E2FF08E2780FCF48
:1010A700F208EFF2309902C299D007D006D005D0E6
:1010B70004D003D002D001D000D0D0D082D083D0CA
:0410C700F0D0E03253
:10149A008F3DFEFDFBF7EFDFBF7FBFDFEFF7FBFD01
:1014AA00FE904C7EBDDBE7DBBD7EFF00FF00FF0048
:0F14BA00FFFFFF825C0000825E00008260000086
:10060200EE6003020A95EF24FE603514605D240259
:100612006003020A95785CE2FE08E2FFC3940FEEE3
:10062200648094805017743D2FF8E2F580F590F5C0
:10063200A07F017E00121541785D020A4BC20022A2
:10064200785EE2FE08E2FFC39410EE64809480506C
:1006520017744C2FF8E2F580F590F5A07F077E0025
:10066200120003785F020A4BC20122C37861E2944E
:100672000F18E264809480400302083EE4FFFEFD0E
:10068200FC7809E2FB08E2F908E2FA08E2CBF81288
:100692000D346031402FE4FFFE7D707C427809E228
:1006A200FB08E2F908E2FA08E2CBF8120D34501521
:1006B2007580FF7590FF75A0FF7F057E0012000315
:1006C2007861020A4BE4FFFE7D707C427809E2FB0E
:1006D20008E2F908E2FA08E2CBF8120D3460314080
:1006E2002FE4FFFE7DF07C427809E2FB08E2F90884
:1006F200E2FA08E2CBF8120D34501575800C7590B1
:100702000C75A00C7F057E001200037861020A4B73
:10071200E4FFFE7DF07C427809E2FB08E2F908E2A0
:10072200FA08E2CBF8120D346031402FE4FFFE7D6F
:10073200347C437809E2FB08E2F908E2FA08E2CBEA
:10074200F8120D3450157580FF7590FF75A0FF7F6C
:10075200057E001200037861020A4BE4FFFE7D343D
:100762007C437809E2FB08E2F908E2FA08E2CBF8F6
:10077200120D346031402FE4FFFE7D707C43780916
:10078200E2FB08E2F908E2FA08E2CBF8120D345073
:100792001575800C75900C75A00C7F057E001200FB
:1007A200037861020A4BE4FFFE7D707C437809E224
:1007B200FB08E2F908E2FA08E2CBF8120D346031E4
:1007C200402FE4FFFE7D967C437809E2FB08E2F9C4
:1007D20008E2FA08E2CBF8120D3450157580FF7565
:1007E20090FF75A0FF7F057E001200037861020A68
:1007F2004BE4FFFE7D967C437809E2FB08E2F908B0
:10080200E2FA08E2CBF8120D346031402FE4FFFE29
:100812007DB47C437809E2FB08E2F908E2FA08E2D7
:10082200CBF8120D34501575800C75900C75A00C18
:100832007F057E001200037861020A4B7860E2FEB7
:1008420008E2FFC3940FEE64809480401FEF941976
:10085200EE6480948050157580FF7F067E00120042
:10086200037861E22401F218E23400F27860E2FED9
:1008720008E2FFC39419EE648094805003020A5583
:10088200EF9428EE648094804003020A55E4FFFE50
:10089200FDFC7809E2FB08E2F908E2FA08E2CBF88B
:1008A200120D346031402FE4FFFE7D707C427809E6
:1008B200E2FB08E2F908E2FA08E2CBF8120D345042
:1008C200157580FF7590FF75A0FF7F057E001200F1
:1008D200037861020A4BE4FFFE7D707C427809E2F4
:1008E200FB08E2F908E2FA08E2CBF8120D346031B3
:1008F200402FE4FFFE7DF07C427809E2FB08E2F93A
:1009020008E2FA08E2CBF8120D34501575800C7526
:10091200900C75A00C7F057E001200037861020A1C
:100922004BE4FFFE7DF07C427809E2FB08E2F90825
:10093200E2FA08E2CBF8120D346031402FE4FFFEF8
:100942007D347C437809E2FB08E2F908E2FA08E226
:10095200CBF8120D3450157580FF7590FF75A0FF0E
:100962007F057E001200037861020A4BE4FFFE7DE0
:10097200347C437809E2FB08E2F908E2FA08E2CBA8
:10098200F8120D346031402FE4FFFE7D707C437815
:1009920009E2FB08E2F908E2FA08E2CBF8120D34A8
:1009A200501575800C75900C75A00C7F057E001299
:1009B20000037861020A4BE4FFFE7D707C437809F4
:1009C200E2FB08E2F908E2FA08E2CBF8120D346021
:1009D20030402EE4FFFE7D967C437809E2FB08E27C
:1009E200F908E2FA08E2CBF8120D3450147580FFD0
:1009F2007590FF75A0FF7F057E001200037861806D
:100A020048E4FFFE7D967C437809E2FB08E2F908A0
:100A1200E2FA08E2CBF8120D3460384036E4FFFE09
:100A22007DB47C437809E2FB08E2F908E2FA08E2C5
:100A3200CBF8120D34501C75800C75900C75A00CFF
:100A42007F057E001200037861E22401F218E2348D
:100A520000F2227860E2FE08E2FFC39428EE64808E
:100A62009480401FEF9432EE64809480501575801C
:100A7200FF7F067E001200037861E22401F218E291
:100A82003400F2C37861E2943218E26480948040C8
:040A920002C2022278
:10157300D3EF9400EE64809480400B7D0ADDFEEF90
:061583001F70ED1E80EA5E
:01158900223F
:10000300D3EF9400EE64809480400F7D0D7C21DC5F
:0A001300FEDDFAEF1F70E91E80E623
:01001D0022C0
:10154100D3EF9400EE64809480400F7D287C72DCA0
:0A155100FEDDFAEF1F70E91E80E6D0
:01155B00226D
:10002600300002C200300102C201300202C202E404
:10003600FFFEFDFC7809E2FB08E2F908E2FA08E2B5
:10004600CBF8120D34601F401DE4FFFE7D707C412D
:100056007809E2FB08E2F908E2FA08E2CBF8120DA9
:1000660034500302051CE4FFFE7D707C417809E2F2
:10007600FB08E2F908E2FA08E2CBF8120D34601F39
:10008600401DE4FFFE7DF07C417809E2FB08E2F9C1
:1000960008E2FA08E2CBF8120D34500302057BE4BD
:1000A600FFFE7DF07C417809E2FB08E2F908E2FAFE
:1000B60008E2CBF8120D34601F401DE4FFFE7D34CC
:1000C6007C427809E2FB08E2F908E2FA08E2CBF89A
:1000D600120D3450030205DAE4FFFE7D347C4278CB
:1000E60009E2FB08E2F908E2FA08E2CBF8120D345D
:1000F600601F401DE4FFFE7D707C427809E2FB082C
:10010600E2F908E2FA08E2CBF8120D3450030205D0
:100116001CE4FFFE7D707C427809E2FB08E2F908E8
:10012600E2FA08E2CBF8120D346021401FE4FFFE2C
:100136007D967C427809E2FB08E2F908E2FA08E2D9
:10014600CBF8120D346005400302057BE4FFFE7D0B
:10015600967C427809E2FB08E2F908E2FA08E2CB6B
:10016600F8120D34601F401DE4FFFE7DB47C42781A
:1001760009E2FB08E2F908E2FA08E2CBF8120D34CC
:1001860050030205DAE4FFFE7DB47C427809E2FB07
:1001960008E2F908E2FA08E2CBF8120D34601F40D3
:1001A6001DE4FFFE7DD27C427809E2FB08E2F908F5
:1001B600E2FA08E2CBF8120D34500302051CE4FF04
:1001C600FE7DD27C427809E2FB08E2F908E2FA08F1
:1001D600E2CBF8120D34601F401DE4FFFE7DF07C7B
:1001E600427809E2FB08E2F908E2FA08E2CBF812E3
:1001F6000D34500302057BE4FFFE7DF07C42780956
:10020600E2FB08E2F908E2FA08E2CBF8120D3460E4
:100216001F401DE4FFFE7D077C437809E2FB08E2F0
:10022600F908E2FA08E2CBF8120D3450030205DAB7
:10023600E4FFFE7D077C437809E2FB08E2F908E269
:10024600FA08E2CBF8120D34601F401DE4FFFE7D74
:10025600167C437809E2FB08E2F908E2FA08E2CBE9
:10026600F8120D34500302051CE4FFFE7D167C4394
:100276007809E2FB08E2F908E2FA08E2CBF8120D87
:1002860034601F401DE4FFFE7D257C437809E2FBB8
:1002960008E2F908E2FA08E2CBF8120D345003023C
:1002A600057BE4FFFE7D257C437809E2FB08E2F945
:1002B60008E2FA08E2CBF8120D34601F401DE4FF95
:1002C600FE7D347C437809E2FB08E2F908E2FA088D
:1002D600E2CBF8120D3450030205DAE4FFFE7D345A
:1002E6007C437809E2FB08E2F908E2FA08E2CBF877
:1002F600120D34601F401DE4FFFE7D437C437809E8
:10030600E2FB08E2F908E2FA08E2CBF8120D3450F3
:100316000302051CE4FFFE7D437C437809E2FB08EB
:10032600E2F908E2FA08E2CBF8120D34601F401D2C
:10033600E4FFFE7D527C437809E2FB08E2F908E21D
:10034600FA08E2CBF8120D34500302057BE4FFFEF7
:100356007D527C437809E2FB08E2F908E2FA08E2FA
:10036600CBF8120D34601F401DE4FFFE7D617C4317
:100376007809E2FB08E2F908E2FA08E2CBF8120D86
:100386003450030205DAE4FFFE7D617C437809E21E
:10039600FB08E2F908E2FA08E2CBF8120D34601F16
:1003A600401DE4FFFE7D707C437809E2FB08E2F91C
:1003B60008E2FA08E2CBF8120D34500302051CE4F9
:1003C600FFFE7D707C437809E2FB08E2F908E2FA59
:1003D60008E2CBF8120D34601F401DE4FFFE7D7F5E
:1003E6007C437809E2FB08E2F908E2FA08E2CBF876
:1003F600120D34500302057BE4FFFE7D7F7C4378BB
:1004060009E2FB08E2F908E2FA08E2CBF8120D3439
:10041600601F401DE4FFFE7D877C437809E2FB08F0
:10042600E2F908E2FA08E2CBF8120D3450030205AD
:10043600DAE4FFFE7D877C437809E2FB08E2F908EF
:10044600E2FA08E2CBF8120D346020401E7F007EEF
:10045600807D8E7C437809E2FB08E2F908E2FA081F
:10046600E2CBF8120D34500302051C7F007E807D1E
:100476008E7C437809E2FB08E2F908E2FA08E2CB4F
:10048600F8120D34601F401DE4FFFE7D967C437814
:1004960009E2FB08E2F908E2FA08E2CBF8120D34A9
:1004A600500302057BE4FFFE7D967C437809E2FB60
:1004B60008E2F908E2FA08E2CBF8120D34602040AF
:1004C6001E7F007E807D9D7C437809E2FB08E2F971
:1004D60008E2FA08E2CBF8120D3450030205DA7F7F
:1004E600007E807D9D7C437809E2FB08E2F908E204
:1004F600FA08E2CBF8120D3460444042E4FFFE7D78
:10050600A57C437809E2FB08E2F908E2FA08E2CBA7
:10051600F8120D3450287590FF75A0FF7580F97F8D
:100526000A7E001215737580207F017E001200037B
:100536007580F97F0A7E001215737580FF22E4FF2D
:10054600FE7DA57C437809E2FB08E2F908E2FA0899
:10055600E2CBF8120D34604540437F007E807DACCF
:100566007C437809E2FB08E2F908E2FA08E2CBF8F4
:10057600120D3450287580FF75A0FF7590F97F0A1B
:100586007E001215737590207F017E0012000375A0
:1005960090F97F0A7E001215737590FF227F007E08
:1005A600807DAC7C437809E2FB08E2F908E2FA08B0
:1005B600E2CBF8120D3460434041E4FFFE7DB47C8B
:1005C600437809E2FB08E2F908E2FA08E2CBF812FE
:1005D6000D3450277580FF7590FF75A0F97F0A7E50
:1005E6000012157375A0207F017E0012000375A00E
:0C05F600F97F0A7E0012157375A0FF2229
:0D14C90087623C99C3E7FFFFFF82690000C6
:101512007869E2FE08E2FFC39407EE64809480508B
:101522001774622FF8E2F580F590F5A0786AE2244C
:0F15320001F218E23400F222E47869F208F222A2
:01001E0022BF
:100A9600020E20E86480F8E933E83360110460F060
:100AA600ED33EC337009E8FCE9FDEAFEEBFF2204C6
:100AB60060DED3EB9FEA9EE99DE8C2E78CF0C2F7C1
:100AC60095F0400CE8CCF8E9CDF9EACEFAEBCFFB8D
:100AD600120DEB85D0F05804700320D5B3E80470EE
:100AE600075002B2D5020E2A92D5EC0460F7E4CC88
:100AF600C0E0C398F8603B94186008400DD0E0FB56
:100B0600020E02E4FBFAC9FC8028E830E406E4C9D8
:100B1600FBE4CAFCE830E305E4C9CACBFCE85407A9
:100B26006010F8C3E913F9EA13FAEB13FBEC13FCB4
:100B3600D8F130F52FC3E49CFCEF9BFFEE9AFEED57
:100B460099FDD0E0FBEF4E4D4C701222DB03020EF6
:100B560027EC2CFCEF33FFEE33FEED33FDED30E7F3
:100B6600EB020E02EF2BFFEE3AFEED39FDD0E0FB75
:100B760050130BBB0003020E2AED13FDEE13FEEF1E
:080B860013FFEC13FC020E0248
:100B8E00EC4D6011E8497017ED33EC3304600DE461
:100B9E00FCFFFEFD22E933E8330470F8020E20124A
:100BAE000DEB58046009E4CC24815006285009024C
:100BBE000E2A284003020E27C0E0EB4A7044B9808B
:100BCE0006D0E0FB020E16EF4E701CBD8008EBFF48
:100BDE00EAFEE9FD80EBE98DF0A4FEE5F0020C776C
:100BEE00E9CDF9EAFEEBFFEF89F0A4FCE5F0CE8942
:100BFE00F0A42EFFE435F0CD89F0A42DFEE435F0FF
:100C0E008067EF4E7005BD80D780C3EF8BF0A4AC2C
:100C1E00F0EE8BF0A42CFCE435F0F8EF8AF0A42C67
:100C2E00E5F038FCE433CB8DF0A42CFCE5F03BF87A
:100C3E00EE8AF0A42CFCE5F038F8E433CF89F0A46A
:100C4E002CFCE5F038CF3400CE89F0A42FFFE5F070
:100C5E003EFEE433C98DF0A42EFEE5F039CD8AF0C8
:100C6E00A42FFFE5F03EFEE43DFD33D0E0FB500740
:100C7E000BBB000F020E2AEC2CFCEF33FFEE33FE03
:060C8E00ED33FD020E0231
:100C9400020E2AEC5D046005E859047003020E207C
:100CA400120DEB580460F6EC4860F2EC7004FDFEA3
:100CB400FF22C860DB2481C85009C3986002500633
:100CC400020E279850CAF582E9294B4A7005AB8277
:100CD400020E1675F0007C1A7880C3EF9BEE9AED35
:100CE40099400DC3EF9BFFEE9AFEED99FDE842F0AB
:100CF400DC23ACF0D0E0FFD0E0FED0E0FDAB8220FE
:100D0400E7101BEB60BAEC2CFCEF33FFEE33FEED87
:100D140033FD020E02E803F830E705C0F075F00079
:100D2400EF2FFFEE33FEED33FD40B830E7C280AA6B
:100D340074F8CC6480CCC86480C8F58204604FC366
:100D4400EB9FF5F0EA9E42F0E99D42F0E89C45F005
:100D5400603C501DE5825FFFE582D313CB5BCBF48F
:100D64002B5582FB50280ABA002409B900200880B8
:100D74001DE5825BFBE582D313CF5FCFF4C3132F52
:100D84005582FF50090EBE00050DBD00010CC3EBDA
:100D94009FF5F0EA9E42F0E99D42F0E89C45F06040
:090DA40007CC4820E701B3EC2262
:100DAD0075F020800E75F010800575F0087D007EC1
:100DBD00007F003392D530D503120E94EC334010E2
:100DCD00EF33FFEE33FEED33FDEC33FCD5F0ED22CA
:0E0DDD00E5F0247EA2D513CC92E7CDCEFF2206
:1014D700ECC0E0F8EDC0E0F9EEC0E0FAEFC0E0FBE9
:1014E700120B8EEC6480FC7B007A007980783F12C7
:1014F7000A9D1212C4D0E0CFFBD0E0CEFAD0E0CDE7
:0B150700F9D0E0CCF8120C970210EBBA
:100DEB00E9D2E7C933E833F892D5EDD2E7CD33EC4E
:070DFB0033FC5002B2D522C7
:100E0200EC30E7100FBF000C0EBE00080DBD000451
:100E12000BEB6014A2D5EB13FCED92E7FD2274FFFD
:100E2200FCFDFEFF22E480F8A2D574FF13FC7D8056
:030E3200E480EF6A
:1012C000020E2022EDA2E7D2E7F9EC3340F260F300
:1012D000B4FF08ED547F70E8020E2AF82481C2E0C2
:1012E000C0E0F40428FAC313FCED92E7FD786B121A
:1012F0000EDBEEA2E7E9BA7F02C31334009400FAD2
:1013000075F091A4E5F013F494FE8AF0A433E5F0AF
:1013100033248CD313FDE492E7FE7F007C3F75837A
:1013200002ECC0E0F8EDC0E0F9EEC0E0FAEFC0E09A
:10133000FB88F0786B120EA2A8F0120C97D0E0FB9D
:10134000D0E0FAD0E0F9D0E0F8120A9DED6480FD1B
:1013500030E7011CD583CAED33CC33F8D0E0A2E7E7
:081360001328C313CC13FD2276
:1010CB00BE1249253E4CCCCDBEAAAAAB3F80000038
:1010DB003E7ADBB03EED63383F24BC7D3F490FDBEE
:1010EB00ED33ECC2E7CC339204B4FF13ED547F60C5
:1010FB0003020E207FDB7E0F7DC97C3F0211DFC216
:10110B0005C3947F401E7007EDD2E794904015EF16
:10111B00FBEEFAEDF9ECF87F007E007D807C3F1250
:10112B000C97D205ED33EC33248430E705E4C0E0B3
:10113B00806C04FAEDD2E754F0C333DAFD54073474
:10114B00002323C0E0CCC0E0F8EDC0E0F9EEC0E036
:10115B00FAEFC0E0FBE4120DB7EC24FEFC88F0784C
:10116B006B120EDBA8F0120B8E7B007A0079807865
:10117B003F120A9D786BE2B2E7CCF208E2CDF2089F
:10118B00E2CEF208E2CFF2D0E0FBD0E0FAD0E0F909
:10119B00D0E0F8120A9D786B120EBE120C97786B8A
:1011AB00120EDB9010CB7403120E35786B120EBE41
:1011BB00120B8ED0E0600F24D7F582E43410F58348
:1011CB00120ECB120A9D30050B7BDB7A0F79C97897
:1011DB00BF120A9DED33EC336006ECA20492E7FCE0
:0111EB0022E1
:100E3500C0E0EFFBEEFAEDF9ECF8120B8ED0E0F521
:100E4500F0EFFBEEFAEDF9ECF8120EAEA3A3A3A3B7
:100E5500E8C0E0E9C0E0EAC0E0EBC0E0C0F0120B9A
:100E65008E120ECBA3A3A3A3120A9DD0F0D0E0FB54
:0D0E7500D0E0FAD0E0F9D0E0F8D5F0D422BA
:101374000211ECE493A3F8E493A34003F68001F292
:1013840008DFF48029E493A3F85407240CC8C3337A
:10139400C4540F4420C8834004F456800146F6DF49
:1013A400E4800B0102040810204080901471E47E54
:1013B400019360BCA3FF543F30E509541FFEE4933E
:1013C400A360010ECF54C025E060A840B8E493A305
:1013D400FAE493A3F8E493A3C8C582C8CAC583CA30
:1013E400F0A3C8C582C8CAC583CADFE9DEE780BEE8
:0114D6000015
:100E8200EF8DF0A4A8F0CF8CF0A428CE8DF0A42E84
:020E9200FE223E
:0E0E9400C3E49FFFE49EFEE49DFDE49CFC226F
:0C0EA200E2FC08E2FD08E2FE08E2FF228C
:100EAE00E493FC740193FD740293FE740393FF228A
:0D0EBE00E2FB08E2F908E2FA08E2CBF822B4
:100ECB00E493F8740193F9740293FA740393FB227D
:0C0EDB00ECF208EDF208EEF208EFF22253
:00000001FF
