:03000000020ED518
:0C0ED500787FE4F6D8FD758120020F1C28
:1010F700D3EF9400EE64809480400B7D0ADDFEEF11
:061107001F70ED1E80EADE
:01110D0022BF
:10000300D3EF9400EE64809480400F7D0D7C21DC5F
:0A001300FEDDFAEF1F70E91E80E623
:01001D0022C0
:1010DC00D3EF9400EE64809480400F7D287C72DC0A
:0A10EC00FEDDFAEF1F70E91E80E63A
:0110F60022D7
:1008CD00000000000001000300050008000B000FF0
:1008DD0000140019001F0026002D0035003D0046B4
:1008ED00004F005A00640070007C0088009500A342
:1008FD0000B100C000CF00DF00F0010101120125A1
:10090D000137014A015E01720187019C01B201C8E4
:10091D0001DF01F6020E0226023F02580271028B20
:10092D0002A602C002DC02F703130330034C036975
:10093D00038703A503C303E10400041F043F045E02
:10094D00047E049F04BF04E00501052205440565EE
:10095D00058705A905CC05EE061106330656067961
:10096D00069C06C006E30706072A074E0771079582
:10097D0007B907DC080008240847086B088F08B280
:10098D0008D608FA091D09400964098709AA09CD85
:10099D0009EF0A120A340A570A790A9B0ABC0ADEC1
:1009AD000AFF0B200B410B610B820BA20BC10BE15C
:1009BD000C000C1F0C3D0C5B0C790C970CB40CD07F
:1009CD000CED0D090D240D400D5A0D750D8F0DA853
:1009DD000DC10DDA0DF20E0A0E210E380E4E0E64FB
:1009ED000E790E8E0EA20EB60EC90EDB0EEE0EFF9A
:1009FD000F100F210F310F400F4F0F5D0F6B0F7841
:100A0D000F840F900F9C0FA60FB10FBA0FC30FCB12
:100A1D000FD30FDA0FE10FE70FEC0FF10FF50FF812
:100A2D000FFB0FFD0FFF1000100010001001100341
:100A3D0010051008100B100F10141019101F102690
:100A4D00102D1034103D1046104F10591064106FBA
:100A5D00107B1088109510A310B110C010CF10DFAF
:100A6D0010F01101111211241137114A115E11727A
:100A7D001187119C11B211C811DF11F6120E122639
:100A8D00123F12581271128B12A512C012DB12F7FF
:100A9D001313132F134C1369138613A413C213E1ED
:100AAD001400141F143E145E147E149E14BF14DF24
:100ABD001500152215431565158715A915CB15EECE
:100ACD001610163316561679169C16BF16E3170612
:100ADD001729174D1771179417B817DC180018231D
:100AED001847186B188E18B218D618F9191D194019
:100AFD001963198619A919CC19EF1A121A341A5635
:100B0D001A781A9A1ABC1ADD1AFF1B201B411B6199
:100B1D001B811BA11BC11BE01C001C1E1C3D1C5B73
:100B2D001C791C961CB31CD01CEC1D081D241D3FEC
:100B3D001D5A1D741D8E1DA81DC11DD91DF21E0926
:100B4D001E201E371E4D1E631E791E8D1EA21EB544
:100B5D001EC81EDB1EED1EFF1F101F201F301F4065
:100B6D001F4F1F5D1F6B1F781F841F901F9C1FA69B
:100B7D001FB01FBA1FC31FCB1FD31FDA1FE11FE703
:100B8D001FEC1FF11FF51FF81FFB1FFD1FFF20009E
:100F610081000082010000820300008205000082EE
:100F71000B0000820D00008207000082090000C101
:070F810000C101C102C10320
:100E060012110E7839E2FE08E2FF121125C006C063
:100E1600077835E2FE08E2FF121125D0E02FFDD05B
:100E2600E03EFC120DB3782B120DFAE4FFFE7D6155
:100E36007C44782BE2FB08E2F908E2FA08E2CBF8F8
:100E4600120D3560074005120026805F780BE2FE22
:100E560008E2FFC3780EE29FFF18E29EFED3EF94EE
:100E660084EE648094834005121054803E780DE22F
:100E7600FE08E2FFC3780CE29FFF18E29EFED3EF66
:100E86009484EE648094834005121098801D30008F
:100E9600047F01800C3001047F0280053002097F47
:100EA600037E0012057C8003120FDC7807E2FE0841
:100EB600E2FF64284E7002D200EF64644E7002D2E4
:0F0EC60001EF64A04E6003020E09D202020E0972
:100FDC009008CDE493FE740193FF7809E2FC08E2DB
:100FEC00FDD39FEE6480F8EC648098401B9009BDA3
:100FFC00E493FE740193FFED9FEE6480F8EC648043
:10100C0098500575800F803C9009BDE493FE7401E7
:10101C0093FFD3ED9FEE6480F8EC648098402290AF
:10102C000AADE493FE740193FF780AE29FEE6480AC
:10103C00F5F018E2648095F0500775900F7580FFFD
:08104C00227580FF7590FF2260
:10110E00D2AFD2AC75985075CAFD75CBFF75CCFDBC
:07111E0075CDFF75C83422F6
:03002300020B9D30
:100B9D00C0E0C0F0C0D075D000C000C001C002C020
:100BAD0003C004C005C006C007209803020D19C27A
:100BBD0098AF997800E2FD25E0240FF8E4F208EFF4
:100BCD00F2ED700E7810E26455700218E2600302C7
:100BDD000D1E7800E204F2E2640B6003020D19F2BF
:100BED007811E2FE08E2FFEE6003020D19EF24AE6C
:100BFD007003020CD4046003020D197816E2FE781E
:100C0D0013E24E7925F308E209F37803E2FE08E2D8
:100C1D00FF7801EEF2FE08EFF2FF7805E2FC08E244
:100C2D00FD7803ECF2FC08EDF2FD7825E2FA08E21E
:100C3D00FB7805EAF208EBF2E42B780AF2EA3408C5
:100C4D0018F2C3EF9DEC6480F8EE648098401B7839
:100C5D0005E2FE08E2FFD37804E29FEE6480F5F032
:100C6D0018E2648095F05002C2037803E2FE08E2B8
:100C7D00FFD37802E29FEE6480F5F018E264809570
:100C8D00F0502F7805E2FC08E2FDC3EF9DEC648087
:100C9D00F8EE648098401BD203D37838E29499180B
:100CAD00E264809499400B7808E22401F218E23452
:100CBD0000F23003577809E2FE08E2FFC3E49FF229
:100CCD0074209E18F280457816E2FE7813E24E7974
:100CDD0035F308E209F3781AE2FE7817E24E09F3CC
:100CED0008E209F3781EE2FE781BE24E09F308E2F2
:100CFD0009F3780DE2FF08E2780BCFF208EFF278F6
:100D0D0037E2FF08E2780DCFF208EFF2309902C218
:100D1D0099D007D006D005D004D003D002D001D091
:080D2D0000D0D0D0F0D0E0327C
:100F88008F3BFEFDFBF7EFDFBF7FBFDFEFF7FBFD1A
:100F9800FE904A7EBDDBE7DBBD7EFF00FF00FF0061
:0F0FA800FFFFFF825A0000825C0000825E0000A3
:10057C00EE60030208CCEF24FE603514605D2402AB
:10058C0060030208CC785AE2FE08E2FFC3940FEE37
:10059C00648094805017743B2FF8E2F580F590F549
:1005AC00A07F017E001210DC785B020882C2002260
:1005BC00785CE2FE08E2FFC39410EE6480948050F5
:1005CC0017744A2FF8E2F580F590F5A07F077E00AE
:1005DC00120003785D020882C20122C3785FE294A4
:1005EC000F18E26480948040030207177809E2FE3A
:1005FC0008E2FF9400EE64809480401FEF943CEE80
:10060C006480948050157580FF7590FF75A0FF7FF6
:10061C00057E00120003785F0208827809E2FE086A
:10062C00E2FFD3943CEE64809480401FEF9478EE0C
:10063C0064809480501575800C75900C75A00C7F9F
:10064C00057E00120003785F0208827809E2FE083A
:10065C00E2FFD39478EE64809480401FEF94B4EE64
:10066C006480948050157580FF7590FF75A0FF7F96
:10067C00057E00120003785F0208827809E2FE080A
:10068C00E2FFD394B4EE64809480401FEF94F0EEBC
:10069C0064809480501575800C75900C75A00C7F3F
:1006AC00057E00120003785F0208827809E2FE08DA
:1006BC00E2FFD394F0EE64809480401FEF942CEE14
:1006CC006480948150157580FF7590FF75A0FF7F35
:1006DC00057E00120003785F0208827809E2FE08AA
:1006EC00E2FFD3942CEE64809481401FEF9468EE6B
:1006FC0064809481501575800C75900C75A00C7FDE
:10070C00057E00120003785F020882785EE2FE0824
:10071C00E2FFC3940FEE64809480401FEF9419EEB7
:10072C006480948050157580FF7F067E0012000354
:10073C00785FE22401F218E23400F2785EE2FE08FF
:10074C00E2FFC39419EE64809480500302088CEF8E
:10075C009428EE64809480400302088C7809E2FEB1
:10076C0008E2FF9400EE64809480401FEF943CEE0E
:10077C006480948050157580FF7590FF75A0FF7F85
:10078C00057E00120003785F0208827809E2FE08F9
:10079C00E2FFD3943CEE64809480401FEF9478EE9B
:1007AC0064809480501575800C75900C75A00C7F2E
:1007BC00057E00120003785F0208827809E2FE08C9
:1007CC00E2FFD39478EE64809480401FEF94B4EEF3
:1007DC006480948050157580FF7590FF75A0FF7F25
:1007EC00057E00120003785F0208827809E2FE0899
:1007FC00E2FFD394B4EE64809480401EEF94F0EE4C
:10080C0064809480501475800C75900C75A00C7FCE
:10081C00057E00120003785F805C7809E2FE08E236
:10082C00FFD394F0EE64809480401EEF942CEE6421
:10083C0080948150147580FF7590FF75A0FF7F0523
:10084C007E00120003785F802D7809E2FE08E2FF3B
:10085C00D3942CEE648094814026EF9468EE6480EF
:10086C009481501C75800C75900C75A00C7F057EC6
:10087C0000120003785FE22401F218E23400F22245
:10088C00785EE2FE08E2FFC39428EE648094804018
:10089C001FEF9432EE6480948050157580FF7F06B4
:1008AC007E00120003785FE22401F218E23400F2B9
:1008BC00C3785FE2943218E2648094804002C202F2
:0108CC002209
:100FB7008C6000007E3C18000081C3E700008C6C49
:100FC7000000E7C3810000183C7E0000827A000021
:040FD700827800001C
:10105400300002C200300102C201300202C2027832
:101064007AE2FE08E2FFC3940CEE64809480501D83
:1010740074602FF8E2F580F590F5A0787BE2240106
:10108400F218E23400F27F017E000210F7E4787A6D
:04109400F208F2224A
:10109800300002C200300102C201300202C20278EE
:1010A80078E2FE08E2FFC3940CEE64809480501D41
:1010B800746C2FF8E2F580F590F5A07879E22401B8
:1010C800F218E23400F27F017E000210F7E478782B
:0410D800F208F22206
:10002600300003C20022300103C20122300203C2A3
:1000360002229008CDE493FE740193FF7809E2FC56
:1000460008E2FDD39FEE6480F8EC64809840199036
:1000560008EBE493FE740193FFED9FEE6480F8ECE9
:1000660064809850030204DA9008EBE493FE74016E
:1000760093FF7809E2FC08E2FDD39FEE6480F8EC7A
:100086006480984019900909E493FE740193FFED8A
:100096009FEE6480F8EC6480985003020521900975
:1000A60009E493FE740193FF7809E2FC08E2FDD3AC
:1000B6009FEE6480F8EC6480984019900927E493D9
:1000C600FE740193FFED9FEE6480F8EC6480985017
:1000D60003020568900927E493FE740193FF7809EB
:1000E600E2FC08E2FDD39FEE6480F8EC6480984061
:1000F60019900945E493FE740193FFED9FEE648029
:10010600F8EC64809850030204DA900945E493FE03
:10011600740193FF7809E2FC08E2FDD39FEE648048
:10012600F8EC648098401A900963E493FE74019396
:10013600FFD3ED9FEE6480F8EC64809840030205DF
:1001460021900963E493FE740193FF7809E2FC08A9
:10015600E2FDD39FEE6480F8EC6480984019900924
:1001660081E493FE740193FFED9FEE6480F8EC64E6
:1001760080985003020568900981E493FE74019308
:10018600FF7809E2FC08E2FDD39FEE6480F8EC6498
:100196008098401990099FE493FE740193FFED9FA8
:1001A600EE6480F8EC64809850030204DA90099FAC
:1001B600E493FE740193FF7809E2FC08E2FDD39F05
:1001C600EE6480F8EC64809840199009BDE493FED3
:1001D600740193FFED9FEE6480F8EC648098500301
:1001E6000205219009BDE493FE740193FF7809E2AC
:1001F600FC08E2FDD39FEE6480F8EC648098401919
:100206009009DBE493FE740193FFED9FEE6480F8A2
:10021600EC64809850030205689009DBE493FE7451
:100226000193FF7809E2FC08E2FDD39FEE6480F8B3
:10023600EC64809840199009F9E493FE740193FFE9
:10024600ED9FEE6480F8EC64809850030204DA9027
:1002560009F9E493FE740193FF7809E2FC08E2FDD4
:10026600D39FEE6480F8EC6480984019900A17E4F6
:1002760093FE740193FFED9FEE6480F8EC64809822
:100286005003020521900A17E493FE740193FF7848
:1002960009E2FC08E2FDD39FEE6480F8EC648098E6
:1002A6004019900A35E493FE740193FFED9FEE64C6
:1002B60080F8EC6480985003020568900A35E49350
:1002C600FE740193FF7809E2FC08E2FDD39FEE6419
:1002D60080F8EC6480984019900A53E493FE740108
:1002E60093FFED9FEE6480F8EC648098500302045F
:1002F600DA900A53E493FE740193FF7809E2FC084E
:10030600E2FDD39FEE6480F8EC6480984019900A71
:1003160071E493FE740193FFED9FEE6480F8EC6444
:1003260080985003020521900A71E493FE740193AC
:10033600FF7809E2FC08E2FDD39FEE6480F8EC64E6
:1003460080984019900A8FE493FE740193FFED9F05
:10035600EE6480F8EC6480985003020568900A8F7A
:10036600E493FE740193FF7809E2FC08E2FDD39F53
:10037600EE6480F8EC6480984019900AADE493FE30
:10038600740193FFED9FEE6480F8EC64809850034F
:100396000204DA900AADE493FE740193FF7809E251
:1003A600FC08E2FDD39FEE6480F8EC648098401967
:1003B600900ACBE493FE740193FFED9FEE6480F800
:1003C600EC6480985003020521900ACBE493FE74F6
:1003D6000193FF7809E2FC08E2FDD39FEE6480F802
:1003E600EC6480984019900AE9E493FE740193FF47
:1003F600ED9FEE6480F8EC648098500302056890E7
:100406000AE9E493FE740193FF7809E2FC08E2FD31
:10041600D39FEE6480F8EC6480984019900B07E453
:1004260093FE740193FFED9FEE6480F8EC64809870
:1004360050030204DA900B07E493FE740193FF78ED
:1004460009E2FC08E2FDD39FEE6480F8EC64809834
:100456004019900B25E493FE740193FFED9FEE6423
:1004660080F8EC6480985003020521900B25E493F4
:10047600FE740193FF7809E2FC08E2FDD39FEE6467
:1004860080F8EC6480984019900B43E493FE740165
:1004960093FFED9FEE6480F8EC64809850030205AC
:1004A60068900B43E493FE740193FF7809E2FC081D
:1004B600E2FDD39FEE6480F8EC648098402A900BAE
:1004C60061E493FE740193FFED9FEE6480F8EC64A3
:1004D600809850147590FF75A0FF7580F97F1E7E79
:1004E600001210F77580FF22900B61E493FE7401F1
:1004F60093FF7809E2FC08E2FDD39FEE6480F8ECF6
:10050600648098402A900B7FE493FE740193FFED7C
:100516009FEE6480F8EC64809850147580FF75A097
:10052600FF7590F97F1E7E001210F77590FF2290DE
:100536000B7FE493FE740193FF7809E2FC08E2FD69
:10054600D39FEE6480F8EC6480984029900B9DE47C
:1005560093FE740193FFED9FEE6480F8EC6480983F
:1005660050137580FF7590FF75A0F97F1E7E0012EF
:0605760010F775A0FF2242
:100D350074F8CC6480CCC86480C8F58204604FC365
:100D4500EB9FF5F0EA9E42F0E99D42F0E89C45F004
:100D5500603C501DE5825FFFE582D313CB5BCBF48E
:100D65002B5582FB50280ABA002409B900200880B7
:100D75001DE5825BFBE582D313CF5FCFF4C3132F51
:100D85005582FF50090EBE00050DBD00010CC3EBD9
:100D95009FF5F0EA9E42F0E99D42F0E89C45F0603F
:090DA50007CC4820E701B3EC2261
:100DAE0075F020800E75F010800575F0087D007EC0
:100DBE00007F003392D530D503120DECEC3340108A
:100DCE00EF33FFEE33FEED33FDEC33FCD5F0ED22C9
:0E0DDE00E5F0247EA2D513CC92E7CDCEFF2205
:100EE100020E06E493A3F8E493A34003F68001F213
:100EF10008DFF48029E493A3F85407240CC8C33312
:100F0100C4540F4420C8834004F456800146F6DFE0
:100F1100E4800B0102040810204080900F61E47E00
:100F2100019360BCA3FF543F30E509541FFEE493D5
:100F3100A360010ECF54C025E060A840B8E493A39C
:100F4100FAE493A3F8E493A3C8C582C8CAC583CAC7
:100F5100F0A3C8C582C8CAC583CADFE9DEE780BE7F
:010FDB000015
:0E0DEC00C3E49FFFE49EFEE49DFDE49CFC2218
:0C0DFA00ECF208EDF208EEF208EFF22235
:0C112500EE30E707C3E49FFFE49EFE22CB
:00000001FF
