:030000000212B237
:0C12B200787FE4F6D8FD7581200212F967
:10143E00810000820100008203000082050000820C
:10144E000D0000820F0000820700008409000000DA
:09145E0000C100C101C102C1037B
:10133E001214ED7839E2FC08E2FDFFAE04120EA0A5
:10134E00AA06AB077835E2FC08E2FDFFAE04120EEA
:10135E00A0EF2BFDEE3AFC120D9912120E120DD2C9
:10136E00782DEEF208EFF2D394DCEE648094854093
:10137E0005120026801D3000047F01800C30010410
:10138E007F0280053002097F037E001205EE800386
:10139E001213C17807E2FE08E2FF64144E7002D207
:1013AE0000EF64284E7002D201EF643C4E7084D27E
:0313BE000280802A
:1013C100E4FFFEFDFC7809E2FB08E2F908E2FA0815
:1013D100E2CBF8120D1B6021401FE4FFFE7DF07C83
:1013E100427809E2FB08E2F908E2FA08E2CBF812D6
:1013F1000D1B500575800F8040E4FFFE7DF07C429F
:101401007809E2FB08E2F908E2FA08E2CBF8120DEA
:101411001B60234021E4FFFE7D707C437809E2FBE1
:1014210008E2F908E2FA08E2CBF8120D1B50077541
:0D143100900F7580FF227580FF7590FF22DF
:1014ED00D2AFD2AC75985075CAFD75CBFF75CCFDDA
:0714FD0075CDFF75C8342214
:03002300020F05C4
:100F0500C0E0C0F0C083C082C0D075D000C000C0B2
:100F150001C002C003C004C005C006C00720980375
:100F25000210C9C298AF997800E2FD25E02411F8B6
:100F3500E4F208EFF2ED700E7812E26455700218D3
:100F4500E260030210CE7800E204F2E2640B600373
:100F55000210C9F27813E2FE08E2FFEE6003021008
:100F6500C9EF24AE70030210840460030210C9782F
:100F750018E2FE7815E24EFE08E2FF7827EEF20849
:100F8500EFF2FF7803E2FD08E27801CDF208EDF219
:100F95007805E2FC08E2FD7803ECF2FC08EDF2FDD1
:100FA50008EEF208EFF2C37802E29DEC6480F5F0FA
:100FB50018E2648095F0401B7805E2FE08E2FFD355
:100FC5007804E29FEE6480F5F018E2648095F050B5
:100FD50002D2037803E2FE08E2FFD37802E29FEE35
:100FE5006480F5F018E2648095F0502F7805E2FCF6
:100FF50008E2FDC3EF9DEC6480F8EE648098401B29
:10100500C203D37838E2949918E264809499400B2E
:101015007808E22401F218E23400F27827E2FC08AD
:10102500E2FDEC300326120D99E4FBFAF97845123E
:101035000C7E1214977B337A3379657842120B75DF
:10104500E4FBFA79B47842120A84802C120D99E4F3
:10105500FBFAF97845120C7E1214977B337A3379B3
:10106500657842120B75A804A905AA06AB07E4FF2B
:10107500FE7D877C43120A807809120EF980457837
:1010850018E2FE7815E24E7935F308E209F3781C8B
:10109500E2FE7819E24E09F308E209F37820E2FE50
:1010A500781DE24E09F308E209F3780FE2FF08E242
:1010B500780DCFF208EFF27837E2FF08E2780FCF2C
:1010C500F208EFF2309902C299D007D006D005D0C8
:1010D50004D003D002D001D000D0D0D082D083D0AC
:0410E500F0D0E03235
:101467008F3BFEFDFBF7EFDFBF7FBFDFEFF7FBFD36
:10147700FE904A7EBDDBE7DBBD7EFF00FF00FF007D
:0F148700FFFFFF825A0000825C0000825E0000BF
:1005EE00EE6003020A7CEF24FE603514605824028C
:1005FE006003020A7C785AE2FE08E2FFC3940FEE13
:10060E00648094805017743B2FF8E2F580F590F5D6
:10061E00A07F017E001214D2785B020A32C2002241
:10062E00C3785DE2941018E2648094805015785A75
:10063E0008E2244AF8E2F580F590F5A07F077E00E7
:10064E00020003C20122C3785FE2940F18E26480B5
:10065E0094804003020825E4FFFEFDFC7809E2FBCE
:10066E0008E2F908E2FA08E2CBF8120D1B603140FD
:10067E002FE4FFFE7D707C427809E2FB08E2F90868
:10068E00E2FA08E2CBF8120D1B50157580FF75903B
:10069E00FF75A0FF7F057E00120003785F020A320D
:1006AE00E4FFFE7D707C427809E2FB08E2F908E285
:1006BE00FA08E2CBF8120D1B6031402FE4FFFE7DED
:1006CE00F07C427809E2FB08E2F908E2FA08E2CB94
:1006DE00F8120D1B501575800C75900C75A00C7FC3
:1006EE00057E00120003785F020A32E4FFFE7DF001
:1006FE007C427809E2FB08E2F908E2FA08E2CBF85C
:10070E00120D1B6031402FE4FFFE7D347C437809CF
:10071E00E2FB08E2F908E2FA08E2CBF8120D1B50F0
:10072E00157580FF7590FF75A0FF7F057E00120086
:10073E0003785F020A32E4FFFE7D347C437809E2DF
:10074E00FB08E2F908E2FA08E2CBF8120D1B603161
:10075E00402FE4FFFE7D707C437809E2FB08E2F94E
:10076E0008E2FA08E2CBF8120D1B501575800C75D5
:10077E00900C75A00C7F057E00120003785F020AB4
:10078E0032E4FFFE7D707C437809E2FB08E2F90853
:10079E00E2FA08E2CBF8120D1B6031402FE4FFFEA7
:1007AE007D967C437809E2FB08E2F908E2FA08E25A
:1007BE00CBF8120D1B50157580FF7590FF75A0FFBD
:1007CE007F057E00120003785F020A32E4FFFE7D91
:1007DE00967C437809E2FB08E2F908E2FA08E2CBDC
:1007EE00F8120D1B6031402FE4FFFE7DB47C437880
:1007FE0009E2FB08E2F908E2FA08E2CBF8120D1B57
:10080E00501575800C75900C75A00C7F057E00122E
:10081E000003785F020A32785EE2FE08E2FFC394BC
:10082E000FEE64809480401FEF9419EE64809480E4
:10083E0050157580FF7F067E00120003785FE2245C
:10084E0001F218E23400F2785EE2FE08E2FFC39491
:10085E0019EE648094805003020A3CEF9428EE64F3
:10086E008094804003020A3CE4FFFEFDFC7809E21E
:10087E00FB08E2F908E2FA08E2CBF8120D1B603130
:10088E00402FE4FFFE7D707C427809E2FB08E2F91E
:10089E0008E2FA08E2CBF8120D1B50157580FF75B1
:1008AE0090FF75A0FF7F057E00120003785F020A9D
:1008BE0032E4FFFE7D707C427809E2FB08E2F90823
:1008CE00E2FA08E2CBF8120D1B6031402FE4FFFE76
:1008DE007DF07C427809E2FB08E2F908E2FA08E2D0
:1008EE00CBF8120D1B501575800C75900C75A00C65
:1008FE007F057E00120003785F020A32E4FFFE7D60
:10090E00F07C427809E2FB08E2F908E2FA08E2CB51
:10091E00F8120D1B6031402FE4FFFE7D347C4378CE
:10092E0009E2FB08E2F908E2FA08E2CBF8120D1B25
:10093E0050157580FF7590FF75A0FF7F057E001224
:10094E000003785F020A32E4FFFE7D347C437809AF
:10095E00E2FB08E2F908E2FA08E2CBF8120D1B609E
:10096E0031402FE4FFFE7D707C437809E2FB08E204
:10097E00F908E2FA08E2CBF8120D1B501575800C3F
:10098E0075900C75A00C7F057E00120003785F0237
:10099E000A32E4FFFE7D707C437809E2FB08E2F93F
:1009AE0008E2FA08E2CBF8120D1B6030402EE4FF8D
:1009BE00FE7D967C437809E2FB08E2F908E2FA082C
:1009CE00E2CBF8120D1B50147580FF7590FF75A0C9
:1009DE00FF7F057E00120003785F8048E4FFFE7DF6
:1009EE00967C437809E2FB08E2F908E2FA08E2CBCA
:1009FE00F8120D1B60384036E4FFFE7DB47C437860
:100A0E0009E2FB08E2F908E2FA08E2CBF8120D1B44
:100A1E00501C75800C75900C75A00C7F057E001215
:100A2E000003785FE22401F218E23400F222785ECD
:100A3E00E2FE08E2FFC39428EE64809480401FEF2C
:100A4E009432EE6480948050157580FF7F067E0090
:100A5E00120003785FE22401F218E23400F2C37848
:0F0A6E005FE2943218E2648094804002C2022258
:10000300D3EF9400EE64809480400F7D0D7C21DC5F
:0A001300FEDDFAEF1F70E91E80E623
:01001D0022C0
:1014D200D3EF9400EE64809480400F7D287C72DC10
:0A14E200FEDDFAEF1F70E91E80E640
:0114EC0022DD
:10002600300002C200300102C201300202C202E404
:10003600FFFEFDFC7809E2FB08E2F908E2FA08E2B5
:10004600CBF8120D1B601F401DE4FFFE7D707C4146
:100056007809E2FB08E2F908E2FA08E2CBF8120DA9
:100066001B500302051CE4FFFE7D707C417809E20B
:10007600FB08E2F908E2FA08E2CBF8120D1B601F52
:10008600401DE4FFFE7DF07C417809E2FB08E2F9C1
:1000960008E2FA08E2CBF8120D1B5003020573E4DE
:1000A600FFFE7DF07C417809E2FB08E2F908E2FAFE
:1000B60008E2CBF8120D1B601F401DE4FFFE7D34E5
:1000C6007C427809E2FB08E2F908E2FA08E2CBF89A
:1000D600120D1B50030205C9E4FFFE7D347C4278F5
:1000E60009E2FB08E2F908E2FA08E2CBF8120D1B76
:1000F600601F401DE4FFFE7D707C427809E2FB082C
:10010600E2F908E2FA08E2CBF8120D1B50030205E9
:100116001CE4FFFE7D707C427809E2FB08E2F908E8
:10012600E2FA08E2CBF8120D1B6021401FE4FFFE45
:100136007D967C427809E2FB08E2F908E2FA08E2D9
:10014600CBF8120D1B60054003020573E4FFFE7D2C
:10015600967C427809E2FB08E2F908E2FA08E2CB6B
:10016600F8120D1B601F401DE4FFFE7DB47C427833
:1001760009E2FB08E2F908E2FA08E2CBF8120D1BE5
:1001860050030205C9E4FFFE7DB47C427809E2FB18
:1001960008E2F908E2FA08E2CBF8120D1B601F40EC
:1001A6001DE4FFFE7DD27C427809E2FB08E2F908F5
:1001B600E2FA08E2CBF8120D1B500302051CE4FF1D
:1001C600FE7DD27C427809E2FB08E2F908E2FA08F1
:1001D600E2CBF8120D1B601F401DE4FFFE7DF07C94
:1001E600427809E2FB08E2F908E2FA08E2CBF812E3
:1001F6000D1B5003020573E4FFFE7DF07C42780977
:10020600E2FB08E2F908E2FA08E2CBF8120D1B60FD
:100216001F401DE4FFFE7D077C437809E2FB08E2F0
:10022600F908E2FA08E2CBF8120D1B50030205C9E1
:10023600E4FFFE7D077C437809E2FB08E2F908E269
:10024600FA08E2CBF8120D1B601F401DE4FFFE7D8D
:10025600167C437809E2FB08E2F908E2FA08E2CBE9
:10026600F8120D1B500302051CE4FFFE7D167C43AD
:100276007809E2FB08E2F908E2FA08E2CBF8120D87
:100286001B601F401DE4FFFE7D257C437809E2FBD1
:1002960008E2F908E2FA08E2CBF8120D1B50030255
:1002A6000573E4FFFE7D257C437809E2FB08E2F94D
:1002B60008E2FA08E2CBF8120D1B601F401DE4FFAE
:1002C600FE7D347C437809E2FB08E2F908E2FA088D
:1002D600E2CBF8120D1B50030205C9E4FFFE7D3484
:1002E6007C437809E2FB08E2F908E2FA08E2CBF877
:1002F600120D1B601F401DE4FFFE7D437C43780901
:10030600E2FB08E2F908E2FA08E2CBF8120D1B500C
:100316000302051CE4FFFE7D437C437809E2FB08EB
:10032600E2F908E2FA08E2CBF8120D1B601F401D45
:10033600E4FFFE7D527C437809E2FB08E2F908E21D
:10034600FA08E2CBF8120D1B5003020573E4FFFE18
:100356007D527C437809E2FB08E2F908E2FA08E2FA
:10036600CBF8120D1B601F401DE4FFFE7D617C4330
:100376007809E2FB08E2F908E2FA08E2CBF8120D86
:100386001B50030205C9E4FFFE7D617C437809E248
:10039600FB08E2F908E2FA08E2CBF8120D1B601F2F
:1003A600401DE4FFFE7D707C437809E2FB08E2F91C
:1003B60008E2FA08E2CBF8120D1B500302051CE412
:1003C600FFFE7D707C437809E2FB08E2F908E2FA59
:1003D60008E2CBF8120D1B601F401DE4FFFE7D7F77
:1003E6007C437809E2FB08E2F908E2FA08E2CBF876
:1003F600120D1B5003020573E4FFFE7D7F7C4378DC
:1004060009E2FB08E2F908E2FA08E2CBF8120D1B52
:10041600601F401DE4FFFE7D877C437809E2FB08F0
:10042600E2F908E2FA08E2CBF8120D1B50030205C6
:10043600C9E4FFFE7D877C437809E2FB08E2F90800
:10044600E2FA08E2CBF8120D1B6020401E7F007E08
:10045600807D8E7C437809E2FB08E2F908E2FA081F
:10046600E2CBF8120D1B500302051C7F007E807D37
:100476008E7C437809E2FB08E2F908E2FA08E2CB4F
:10048600F8120D1B601F401DE4FFFE7D967C43782D
:1004960009E2FB08E2F908E2FA08E2CBF8120D1BC2
:1004A6005003020573E4FFFE7D967C437809E2FB68
:1004B60008E2F908E2FA08E2CBF8120D1B602040C8
:1004C6001E7F007E807D9D7C437809E2FB08E2F971
:1004D60008E2FA08E2CBF8120D1B50030205C97FA9
:1004E600007E807D9D7C437809E2FB08E2F908E204
:1004F600FA08E2CBF8120D1B603C403AE4FFFE7DA1
:10050600A57C437809E2FB08E2F908E2FA08E2CBA7
:10051600F8120D1B50207590FF75A0FF75809F7F08
:10052600017E001200037580047F027E0012000324
:1005360075809F0205E6E4FFFE7DA57C437809E20F
:10054600FB08E2F908E2FA08E2CBF8120D1B603C60
:10055600403A7F007E807DAC7C437809E2FB08E26E
:10056600F908E2FA08E2CBF8120D1B501F7580FF5E
:1005760075A0FF75909F7F017E00120003759004A1
:100586007F027E0012000375909F80547F007E805C
:100596007DAC7C437809E2FB08E2F908E2FA08E25E
:1005A600CBF8120D1B6040403EE4FFFE7DB47C4359
:1005B6007809E2FB08E2F908E2FA08E2CBF8120D44
:1005C6001B50247580FF7590FF75A09F7F017E00EC
:1005D60012000375A0047F027E0012000375A09F1F
:0805E6007F017E0012000322D8
:100A7D00020E3EE86480F8E933E83360110460F05B
:100A8D00ED33EC337009E8FCE9FDEAFEEBFF2204DF
:100A9D0060DED3EB9FEA9EE99DE8C2E78CF0C2F7DA
:100AAD0095F0400CE8CCF8E9CDF9EACEFAEBCFFBA6
:100ABD00120E0985D0F05804700320D5B3E80470E8
:100ACD00075002B2D5020E4892D5EC0460F7E4CC83
:100ADD00C0E0C398F8603B94186008400DD0E0FB6F
:100AED00020E20E4FBFAC9FC8028E830E406E4C9D4
:100AFD00FBE4CAFCE830E305E4C9CACBFCE85407C3
:100B0D006010F8C3E913F9EA13FAEB13FBEC13FCCD
:100B1D00D8F130F52FC3E49CFCEF9BFFEE9AFEED70
:100B2D0099FDD0E0FBEF4E4D4C701222DB03020E0F
:100B3D0045EC2CFCEF33FFEE33FEED33FDED30E7EE
:100B4D00EB020E20EF2BFFEE3AFEED39FDD0E0FB70
:100B5D0050130BBB0003020E48ED13FDEE13FEEF19
:080B6D0013FFEC13FC020E2043
:100B7500EC4D6011E8497017ED33EC3304600DE47A
:100B8500FCFFFEFD22E933E8330470F8020E3E1245
:100B95000E0958046009E4CC248150062850090246
:100BA5000E48284003020E45C0E0EB4A7044B98068
:100BB50006D0E0FB020E34EF4E701CBD8008EBFF43
:100BC500EAFEE9FD80EBE98DF0A4FEE5F0020C5E9E
:100BD500E9CDF9EAFEEBFFEF89F0A4FCE5F0CE895B
:100BE500F0A42EFFE435F0CD89F0A42DFEE435F018
:100BF5008067EF4E7005BD80D780C3EF8BF0A4AC46
:100C0500F0EE8BF0A42CFCE435F0F8EF8AF0A42C80
:100C1500E5F038FCE433CB8DF0A42CFCE5F03BF893
:100C2500EE8AF0A42CFCE5F038F8E433CF89F0A483
:100C35002CFCE5F038CF3400CE89F0A42FFFE5F089
:100C45003EFEE433C98DF0A42EFEE5F039CD8AF0E1
:100C5500A42FFFE5F03EFEE43DFD33D0E0FB500759
:100C65000BBB000F020E48EC2CFCEF33FFEE33FEFE
:060C7500ED33FD020E202C
:100C7B00020E48EC5D046005E859047003020E3E59
:100C8B00120E09580460F6EC4860F2EC7004FDFE9D
:100C9B00FF22C860DB2481C85009C398600250064C
:100CAB00020E459850CAF582E9294B4A7005AB8272
:100CBB00020E3475F0007C1A7880C3EF9BEE9AED30
:100CCB0099400DC3EF9BFFEE9AFEED99FDE842F0C4
:100CDB00DC23ACF0D0E0FFD0E0FED0E0FDAB822017
:100CEB00E7101BEB60BAEC2CFCEF33FFEE33FEEDA1
:100CFB0033FD020E20E803F830E705C0F075F00075
:100D0B00EF2FFFEE33FEED33FD40B830E7C280AA84
:100D1B0074F8CC6480CCC86480C8F58204604FC37F
:100D2B00EB9FF5F0EA9E42F0E99D42F0E89C45F01E
:100D3B00603C501DE5825FFFE582D313CB5BCBF4A8
:100D4B002B5582FB50280ABA002409B900200880D1
:100D5B001DE5825BFBE582D313CF5FCFF4C3132F6B
:100D6B005582FF50090EBE00050DBD00010CC3EBF3
:100D7B009FF5F0EA9E42F0E99D42F0E89C45F06059
:090D8B0007CC4820E701B3EC227B
:100D940075F020800E75F010800575F0087D007EDA
:100DA400007F003392D530D503120EB2EC334010DD
:100DB400EF33FFEE33FEED33FDEC33FCD5F0ED22E3
:0E0DC400E5F0247EA2D513CC92E7CDCEFF221F
:100DD200EDD2E7CD33EC3392D524814006E4FFFE19
:100DE200FDFC22FCE4CFCECDCC24E0501174FF8078
:100DF200EDC3CC13CCCD13CDCE13CECF13CF047015
:070E0200F030D5DE020EB254
:10120A00020E3E22EDA2E7D2E7F9EC3340F260F398
:10121A00B4FF08ED547F70E8020E48F82481C2E05A
:10122A00C0E0F40428FAC313FCED92E7FD786412D7
:10123A000EF9EEA2E7E9BA7F02C31334009400FA6A
:10124A0075F091A4E5F013F494FE8AF0A433E5F066
:10125A0033248CD313FDE492E7FE7F007C3F758331
:10126A0002ECC0E0F8EDC0E0F9EEC0E0FAEFC0E051
:10127A00FB88F07864120EC0A8F0120C7ED0E0FB56
:10128A00D0E0FAD0E0F9D0E0F8120A84ED6480FDEB
:10129A0030E7011CD583CAED33CC33F8D0E0A2E79E
:0812AA001328C313CC13FD222D
:10149700ECC0E0F8EDC0E0F9EEC0E0FAEFC0E0FB29
:1014A700120B75EC6480FC7B007A007980783F1220
:1014B7000A8412120ED0E0CFFBD0E0CEFAD0E0CDF6
:0B14C700F9D0E0CCF8120C7E021109F5
:100E0900E9D2E7C933E833F892D5EDD2E7CD33EC2F
:070E190033FC5002B2D522A8
:100E2000EC30E7100FBF000C0EBE00080DBD000433
:100E30000BEB6014A2D5EB13FCED92E7FD2274FFDF
:100E4000FCFDFEFF22E480F8A2D574FF13FC7D8038
:030E5000E480EF4C
:1010E900BE1249253E4CCCCDBEAAAAAB3F8000001A
:1010F9003E7ADBB03EED63383F24BC7D3F490FDBD0
:10110900ED33ECC2E7CC339204B4FF13ED547F60A6
:1011190003020E3E7FDB7E0F7DC97C3F0211FDC2BB
:1011290005C3947F401E7007EDD2E794904015EFF8
:10113900FBEEFAEDF9ECF87F007E007D807C3F1232
:101149000C7ED205ED33EC33248430E705E4C0E0AE
:10115900806C04FAEDD2E754F0C333DAFD54073456
:10116900002323C0E0CCC0E0F8EDC0E0F9EEC0E018
:10117900FAEFC0E0FBE4120D9EEC24FEFC88F07847
:1011890064120EF9A8F0120B757B007A0079807849
:101199003F120A847864E2B2E7CCF208E2CDF208A1
:1011A900E2CEF208E2CFF2D0E0FBD0E0FAD0E0F9EB
:1011B900D0E0F8120A847864120EDC120C7E78648E
:1011C900120EF99010E97403120E537864120EDCB2
:1011D900120B75D0E0600F24F5F582E43410F58325
:1011E900120EE9120A8430050B7BDB7A0F79C97874
:1011F900BF120A84ED33EC336006ECA20492E7FCDB
:0112090022C2
:100E5300C0E0EFFBEEFAEDF9ECF8120B75D0E0F51C
:100E6300F0EFFBEEFAEDF9ECF8120ECCA3A3A3A37B
:100E7300E8C0E0E9C0E0EAC0E0EBC0E0C0F0120B7C
:100E830075120EE9A3A3A3A3120A84D0F0D0E0FB4A
:0D0E9300D0E0FAD0E0F9D0E0F8D5F0D4229C
:1012BE0002133EE493A3F8E493A34003F68001F2F5
:1012CE0008DFF48029E493A3F85407240CC8C33331
:1012DE00C4540F4420C8834004F456800146F6DF00
:1012EE00E4800B010204081020408090143EE47E3E
:1012FE00019360BCA3FF543F30E509541FFEE493F5
:10130E00A360010ECF54C025E060A840B8E493A3BB
:10131E00FAE493A3F8E493A3C8C582C8CAC583CAE6
:10132E00F0A3C8C582C8CAC583CADFE9DEE780BE9E
:011496000055
:100EA000EF8DF0A4A8F0CF8CF0A428CE8DF0A42E66
:020EB000FE2220
:0E0EB200C3E49FFFE49EFEE49DFDE49CFC2251
:0C0EC000E2FC08E2FD08E2FE08E2FF226E
:100ECC00E493FC740193FD740293FE740393FF226C
:0D0EDC00E2FB08E2F908E2FA08E2CBF82296
:100EE900E493F8740193F9740293FA740393FB225F
:0C0EF900ECF208EDF208EEF208EFF22235
:00000001FF
